{
  "contractName": "FavoriteNumber",
  "abi": [
    {
      "inputs": [],
      "payable": false,
      "stateMutability": "nonpayable",
      "type": "constructor"
    },
    {
      "constant": true,
      "inputs": [
        {
          "internalType": "address",
          "name": "",
          "type": "address"
        }
      ],
      "name": "favoriteNumberOf",
      "outputs": [
        {
          "internalType": "uint256",
          "name": "",
          "type": "uint256"
        }
      ],
      "payable": false,
      "stateMutability": "view",
      "type": "function"
    },
    {
      "constant": false,
      "inputs": [],
      "name": "getFavoriteNumber",
      "outputs": [
        {
          "internalType": "uint256",
          "name": "",
          "type": "uint256"
        }
      ],
      "payable": false,
      "stateMutability": "nonpayable",
      "type": "function"
    },
    {
      "constant": false,
      "inputs": [
        {
          "internalType": "uint256",
          "name": "_newFavoriteNumber",
          "type": "uint256"
        }
      ],
      "name": "setFavoriteNumber",
      "outputs": [
        {
          "internalType": "bool",
          "name": "",
          "type": "bool"
        }
      ],
      "payable": false,
      "stateMutability": "nonpayable",
      "type": "function"
    }
  ],
  "bytecode": "0x608060405234801561001057600080fd5b5060008060003373ffffffffffffffffffffffffffffffffffffffff1673ffffffffffffffffffffffffffffffffffffffff168152602001908152602001600020819055506101e3806100646000396000f3fe608060405234801561001057600080fd5b50600436106100415760003560e01c80638ec0423214610046578063a621d15e1461008c578063c478a678146100aa575b600080fd5b6100726004803603602081101561005c57600080fd5b8101908080359060200190929190505050610102565b604051808215151515815260200191505060405180910390f35b610094610150565b6040518082815260200191505060405180910390f35b6100ec600480360360208110156100c057600080fd5b81019080803573ffffffffffffffffffffffffffffffffffffffff169060200190929190505050610196565b6040518082815260200191505060405180910390f35b6000816000803373ffffffffffffffffffffffffffffffffffffffff1673ffffffffffffffffffffffffffffffffffffffff1681526020019081526020016000208190555060019050919050565b60008060003373ffffffffffffffffffffffffffffffffffffffff1673ffffffffffffffffffffffffffffffffffffffff16815260200190815260200160002054905090565b6000602052806000526040600020600091509050548156fea265627a7a7231582021f8229c7fe43a79986e83dfacdfd1cd674e9bd66705d2b4d6ea658a2e57600864736f6c63430005100032",
  "source": "pragma solidity ^0.5.0;\n\ncontract FavoriteNumber {\n\n    mapping (address=>uint) public favoriteNumberOf;\n\n    constructor() public{\n        favoriteNumberOf[msg.sender] = 0;\n    }\n\n    function getFavoriteNumber() public returns (uint256){\n        return favoriteNumberOf[msg.sender];\n    }\n\n    function setFavoriteNumber(uint256 _newFavoriteNumber) public returns (bool){\n        favoriteNumberOf[msg.sender] = _newFavoriteNumber;\n        return true;\n    }\n}",
  "sourcePath": "/Users/eddyreynoso/Desktop/defi/src/contracts/FavoriteNumber.sol",
  "compiler": {
    "name": "solc",
    "version": "0.5.16+commit.9c3226ce.Emscripten.clang"
  },
  "schemaVersion": "3.2.3",
  "updatedAt": "2021-05-10T23:45:16.626Z",
  "networkType": "ethereum",
  "devdoc": {
    "methods": {}
  },
  "userdoc": {
    "methods": {}
  }
}