{
  "contractName": "OnePay",
  "abi": [
    {
      "inputs": [],
      "payable": false,
      "stateMutability": "nonpayable",
      "type": "constructor"
    },
    {
      "anonymous": false,
      "inputs": [
        {
          "indexed": true,
          "internalType": "address",
          "name": "_owner",
          "type": "address"
        },
        {
          "indexed": false,
          "internalType": "uint256",
          "name": "_newBalance",
          "type": "uint256"
        }
      ],
      "name": "BalanceChanged",
      "type": "event"
    },
    {
      "anonymous": false,
      "inputs": [
        {
          "indexed": true,
          "internalType": "address",
          "name": "previousOwner",
          "type": "address"
        },
        {
          "indexed": true,
          "internalType": "address",
          "name": "newOwner",
          "type": "address"
        }
      ],
      "name": "OwnershipTransferred",
      "type": "event"
    },
    {
      "constant": true,
      "inputs": [
        {
          "internalType": "uint256",
          "name": "timestamp",
          "type": "uint256"
        }
      ],
      "name": "getDay",
      "outputs": [
        {
          "internalType": "uint8",
          "name": "",
          "type": "uint8"
        }
      ],
      "payable": false,
      "stateMutability": "pure",
      "type": "function"
    },
    {
      "constant": true,
      "inputs": [
        {
          "internalType": "uint8",
          "name": "month",
          "type": "uint8"
        },
        {
          "internalType": "uint16",
          "name": "year",
          "type": "uint16"
        }
      ],
      "name": "getDaysInMonth",
      "outputs": [
        {
          "internalType": "uint8",
          "name": "",
          "type": "uint8"
        }
      ],
      "payable": false,
      "stateMutability": "pure",
      "type": "function"
    },
    {
      "constant": true,
      "inputs": [
        {
          "internalType": "uint256",
          "name": "timestamp",
          "type": "uint256"
        }
      ],
      "name": "getHour",
      "outputs": [
        {
          "internalType": "uint8",
          "name": "",
          "type": "uint8"
        }
      ],
      "payable": false,
      "stateMutability": "pure",
      "type": "function"
    },
    {
      "constant": true,
      "inputs": [
        {
          "internalType": "uint256",
          "name": "timestamp",
          "type": "uint256"
        }
      ],
      "name": "getMinute",
      "outputs": [
        {
          "internalType": "uint8",
          "name": "",
          "type": "uint8"
        }
      ],
      "payable": false,
      "stateMutability": "pure",
      "type": "function"
    },
    {
      "constant": true,
      "inputs": [
        {
          "internalType": "uint256",
          "name": "timestamp",
          "type": "uint256"
        }
      ],
      "name": "getMonth",
      "outputs": [
        {
          "internalType": "uint8",
          "name": "",
          "type": "uint8"
        }
      ],
      "payable": false,
      "stateMutability": "pure",
      "type": "function"
    },
    {
      "constant": true,
      "inputs": [
        {
          "internalType": "uint256",
          "name": "timestamp",
          "type": "uint256"
        }
      ],
      "name": "getSecond",
      "outputs": [
        {
          "internalType": "uint8",
          "name": "",
          "type": "uint8"
        }
      ],
      "payable": false,
      "stateMutability": "pure",
      "type": "function"
    },
    {
      "constant": true,
      "inputs": [
        {
          "internalType": "uint256",
          "name": "timestamp",
          "type": "uint256"
        }
      ],
      "name": "getWeekday",
      "outputs": [
        {
          "internalType": "uint8",
          "name": "",
          "type": "uint8"
        }
      ],
      "payable": false,
      "stateMutability": "pure",
      "type": "function"
    },
    {
      "constant": true,
      "inputs": [
        {
          "internalType": "uint256",
          "name": "timestamp",
          "type": "uint256"
        }
      ],
      "name": "getYear",
      "outputs": [
        {
          "internalType": "uint16",
          "name": "",
          "type": "uint16"
        }
      ],
      "payable": false,
      "stateMutability": "pure",
      "type": "function"
    },
    {
      "constant": true,
      "inputs": [
        {
          "internalType": "uint16",
          "name": "year",
          "type": "uint16"
        }
      ],
      "name": "isLeapYear",
      "outputs": [
        {
          "internalType": "bool",
          "name": "",
          "type": "bool"
        }
      ],
      "payable": false,
      "stateMutability": "pure",
      "type": "function"
    },
    {
      "constant": true,
      "inputs": [],
      "name": "isOwner",
      "outputs": [
        {
          "internalType": "bool",
          "name": "",
          "type": "bool"
        }
      ],
      "payable": false,
      "stateMutability": "view",
      "type": "function"
    },
    {
      "constant": true,
      "inputs": [
        {
          "internalType": "uint256",
          "name": "year",
          "type": "uint256"
        }
      ],
      "name": "leapYearsBefore",
      "outputs": [
        {
          "internalType": "uint256",
          "name": "",
          "type": "uint256"
        }
      ],
      "payable": false,
      "stateMutability": "pure",
      "type": "function"
    },
    {
      "constant": true,
      "inputs": [],
      "name": "owner",
      "outputs": [
        {
          "internalType": "address",
          "name": "",
          "type": "address"
        }
      ],
      "payable": false,
      "stateMutability": "view",
      "type": "function"
    },
    {
      "constant": true,
      "inputs": [
        {
          "internalType": "uint256",
          "name": "",
          "type": "uint256"
        }
      ],
      "name": "payments",
      "outputs": [
        {
          "internalType": "string",
          "name": "name",
          "type": "string"
        },
        {
          "internalType": "address",
          "name": "from",
          "type": "address"
        },
        {
          "internalType": "address payable",
          "name": "to",
          "type": "address"
        },
        {
          "internalType": "uint256",
          "name": "amount",
          "type": "uint256"
        },
        {
          "internalType": "uint8",
          "name": "nextDay",
          "type": "uint8"
        },
        {
          "internalType": "uint8",
          "name": "nextMonth",
          "type": "uint8"
        },
        {
          "internalType": "uint16",
          "name": "nextYear",
          "type": "uint16"
        },
        {
          "internalType": "uint256",
          "name": "interval",
          "type": "uint256"
        }
      ],
      "payable": false,
      "stateMutability": "view",
      "type": "function"
    },
    {
      "constant": false,
      "inputs": [],
      "name": "renounceOwnership",
      "outputs": [],
      "payable": false,
      "stateMutability": "nonpayable",
      "type": "function"
    },
    {
      "constant": true,
      "inputs": [
        {
          "internalType": "uint16",
          "name": "year",
          "type": "uint16"
        },
        {
          "internalType": "uint8",
          "name": "month",
          "type": "uint8"
        },
        {
          "internalType": "uint8",
          "name": "day",
          "type": "uint8"
        },
        {
          "internalType": "uint8",
          "name": "hour",
          "type": "uint8"
        },
        {
          "internalType": "uint8",
          "name": "minute",
          "type": "uint8"
        }
      ],
      "name": "toTimestamp",
      "outputs": [
        {
          "internalType": "uint256",
          "name": "timestamp",
          "type": "uint256"
        }
      ],
      "payable": false,
      "stateMutability": "pure",
      "type": "function"
    },
    {
      "constant": true,
      "inputs": [
        {
          "internalType": "uint16",
          "name": "year",
          "type": "uint16"
        },
        {
          "internalType": "uint8",
          "name": "month",
          "type": "uint8"
        },
        {
          "internalType": "uint8",
          "name": "day",
          "type": "uint8"
        },
        {
          "internalType": "uint8",
          "name": "hour",
          "type": "uint8"
        }
      ],
      "name": "toTimestamp",
      "outputs": [
        {
          "internalType": "uint256",
          "name": "timestamp",
          "type": "uint256"
        }
      ],
      "payable": false,
      "stateMutability": "pure",
      "type": "function"
    },
    {
      "constant": true,
      "inputs": [
        {
          "internalType": "uint16",
          "name": "year",
          "type": "uint16"
        },
        {
          "internalType": "uint8",
          "name": "month",
          "type": "uint8"
        },
        {
          "internalType": "uint8",
          "name": "day",
          "type": "uint8"
        }
      ],
      "name": "toTimestamp",
      "outputs": [
        {
          "internalType": "uint256",
          "name": "timestamp",
          "type": "uint256"
        }
      ],
      "payable": false,
      "stateMutability": "pure",
      "type": "function"
    },
    {
      "constant": true,
      "inputs": [
        {
          "internalType": "uint16",
          "name": "year",
          "type": "uint16"
        },
        {
          "internalType": "uint8",
          "name": "month",
          "type": "uint8"
        },
        {
          "internalType": "uint8",
          "name": "day",
          "type": "uint8"
        },
        {
          "internalType": "uint8",
          "name": "hour",
          "type": "uint8"
        },
        {
          "internalType": "uint8",
          "name": "minute",
          "type": "uint8"
        },
        {
          "internalType": "uint8",
          "name": "second",
          "type": "uint8"
        }
      ],
      "name": "toTimestamp",
      "outputs": [
        {
          "internalType": "uint256",
          "name": "timestamp",
          "type": "uint256"
        }
      ],
      "payable": false,
      "stateMutability": "pure",
      "type": "function"
    },
    {
      "constant": false,
      "inputs": [
        {
          "internalType": "address",
          "name": "newOwner",
          "type": "address"
        }
      ],
      "name": "transferOwnership",
      "outputs": [],
      "payable": false,
      "stateMutability": "nonpayable",
      "type": "function"
    },
    {
      "constant": true,
      "inputs": [],
      "name": "getSmartContractBalance",
      "outputs": [
        {
          "internalType": "uint256",
          "name": "",
          "type": "uint256"
        }
      ],
      "payable": false,
      "stateMutability": "view",
      "type": "function"
    },
    {
      "constant": true,
      "inputs": [],
      "name": "getUserBalance",
      "outputs": [
        {
          "internalType": "uint256",
          "name": "",
          "type": "uint256"
        }
      ],
      "payable": false,
      "stateMutability": "view",
      "type": "function"
    },
    {
      "constant": true,
      "inputs": [],
      "name": "getAddress",
      "outputs": [
        {
          "internalType": "address",
          "name": "",
          "type": "address"
        }
      ],
      "payable": false,
      "stateMutability": "view",
      "type": "function"
    },
    {
      "constant": false,
      "inputs": [],
      "name": "fundAccount",
      "outputs": [],
      "payable": true,
      "stateMutability": "payable",
      "type": "function"
    },
    {
      "constant": false,
      "inputs": [
        {
          "internalType": "uint256",
          "name": "_amount",
          "type": "uint256"
        }
      ],
      "name": "withdrawFromAccount",
      "outputs": [
        {
          "internalType": "bool",
          "name": "",
          "type": "bool"
        }
      ],
      "payable": false,
      "stateMutability": "nonpayable",
      "type": "function"
    },
    {
      "constant": false,
      "inputs": [
        {
          "internalType": "string",
          "name": "_interval",
          "type": "string"
        }
      ],
      "name": "getInterval",
      "outputs": [
        {
          "internalType": "uint256",
          "name": "",
          "type": "uint256"
        }
      ],
      "payable": false,
      "stateMutability": "nonpayable",
      "type": "function"
    },
    {
      "constant": false,
      "inputs": [
        {
          "internalType": "string",
          "name": "_name",
          "type": "string"
        },
        {
          "internalType": "address payable",
          "name": "_to",
          "type": "address"
        },
        {
          "internalType": "uint256",
          "name": "_amount",
          "type": "uint256"
        },
        {
          "internalType": "uint8",
          "name": "_day",
          "type": "uint8"
        },
        {
          "internalType": "uint8",
          "name": "_month",
          "type": "uint8"
        },
        {
          "internalType": "uint16",
          "name": "_year",
          "type": "uint16"
        },
        {
          "internalType": "string",
          "name": "_interval",
          "type": "string"
        }
      ],
      "name": "addNewBeneficiary",
      "outputs": [],
      "payable": false,
      "stateMutability": "nonpayable",
      "type": "function"
    },
    {
      "constant": true,
      "inputs": [],
      "name": "getCurrentDay",
      "outputs": [
        {
          "internalType": "uint8",
          "name": "",
          "type": "uint8"
        }
      ],
      "payable": false,
      "stateMutability": "view",
      "type": "function"
    },
    {
      "constant": true,
      "inputs": [],
      "name": "getCurrentMonth",
      "outputs": [
        {
          "internalType": "uint8",
          "name": "",
          "type": "uint8"
        }
      ],
      "payable": false,
      "stateMutability": "view",
      "type": "function"
    },
    {
      "constant": true,
      "inputs": [],
      "name": "getCurrentYear",
      "outputs": [
        {
          "internalType": "uint16",
          "name": "",
          "type": "uint16"
        }
      ],
      "payable": false,
      "stateMutability": "view",
      "type": "function"
    },
    {
      "constant": false,
      "inputs": [],
      "name": "dispersePayments",
      "outputs": [
        {
          "internalType": "string",
          "name": "",
          "type": "string"
        }
      ],
      "payable": false,
      "stateMutability": "nonpayable",
      "type": "function"
    }
  ],
  "bytecode": "0x608060405234801561001057600080fd5b50336000806101000a81548173ffffffffffffffffffffffffffffffffffffffff021916908373ffffffffffffffffffffffffffffffffffffffff1602179055506000809054906101000a900473ffffffffffffffffffffffffffffffffffffffff1673ffffffffffffffffffffffffffffffffffffffff16600073ffffffffffffffffffffffffffffffffffffffff167f8be0079c531659141344cd1fd0a4f28419497f9722a3daafe3b4186f6b6457e060405160405180910390a36000600260003373ffffffffffffffffffffffffffffffffffffffff1673ffffffffffffffffffffffffffffffffffffffff168152602001908152602001600020819055506128b6806101216000396000f3fe6080604052600436106101cd5760003560e01c80638f32d59b116100f7578063b238ad0e11610095578063ddd1b67e11610064578063ddd1b67e14610c45578063f2fde38b14610c76578063f9b5731914610cc7578063fa93f88314610d57576101cd565b8063b238ad0e14610b77578063b7013dc114610bdd578063ce41607a14610c08578063d9a8748c14610c3b576101cd565b80639ad135f2116100d15780639ad135f21461094f578063a324ad2414610a7c578063a6f0e57714610ad1578063b199993714610b28576101cd565b80638f32d59b146108355780639054bdec1461086457806392d66313146108f8576101cd565b806362ba96871161016f57806387d817891161013e57806387d81789146105cb5780638aa001fc1461071c5780638c8d98a0146107715780638da5cb5b146107de576101cd565b806362ba96871461045e57806365c72840146104e5578063715018a61461053a5780637f79183314610551576101cd565b80633e6968b6116101ab5780633e6968b61461035a5780634792b0981461038b5780634ac1ad78146103de5780635145cbc014610433576101cd565b80632c7067dc146101d257806338cc4831146102ae5780633e239e1a14610305575b600080fd5b3480156101de57600080fd5b50610298600480360360208110156101f557600080fd5b810190808035906020019064010000000081111561021257600080fd5b82018360208201111561022457600080fd5b8035906020019184600183028401116401000000008311171561024657600080fd5b91908080601f016020809104026020016040519081016040528093929190818152602001838380828437600081840152601f19601f820116905080830192505050505050509192919290505050610dac565b6040518082815260200191505060405180910390f35b3480156102ba57600080fd5b506102c36110dd565b604051808273ffffffffffffffffffffffffffffffffffffffff1673ffffffffffffffffffffffffffffffffffffffff16815260200191505060405180910390f35b34801561031157600080fd5b5061033e6004803603602081101561032857600080fd5b81019080803590602001909291905050506110e5565b604051808260ff1660ff16815260200191505060405180910390f35b34801561036657600080fd5b5061036f61110c565b604051808260ff1660ff16815260200191505060405180910390f35b34801561039757600080fd5b506103c4600480360360208110156103ae57600080fd5b810190808035906020019092919050505061111c565b604051808215151515815260200191505060405180910390f35b3480156103ea57600080fd5b506104176004803603602081101561040157600080fd5b81019080803590602001909291905050506112cc565b604051808260ff1660ff16815260200191505060405180910390f35b34801561043f57600080fd5b506104486112ef565b6040518082815260200191505060405180910390f35b34801561046a57600080fd5b506104cf600480360360a081101561048157600080fd5b81019080803561ffff169060200190929190803560ff169060200190929190803560ff169060200190929190803560ff169060200190929190803560ff16906020019092919050505061130e565b6040518082815260200191505060405180910390f35b3480156104f157600080fd5b5061051e6004803603602081101561050857600080fd5b810190808035906020019092919050505061132a565b604051808260ff1660ff16815260200191505060405180910390f35b34801561054657600080fd5b5061054f611340565b005b34801561055d57600080fd5b506105b56004803603608081101561057457600080fd5b81019080803561ffff169060200190929190803560ff169060200190929190803560ff169060200190929190803560ff169060200190929190505050611410565b6040518082815260200191505060405180910390f35b3480156105d757600080fd5b50610604600480360360208110156105ee57600080fd5b810190808035906020019092919050505061142b565b60405180806020018973ffffffffffffffffffffffffffffffffffffffff1673ffffffffffffffffffffffffffffffffffffffff1681526020018873ffffffffffffffffffffffffffffffffffffffff1673ffffffffffffffffffffffffffffffffffffffff1681526020018781526020018660ff1660ff1681526020018560ff1660ff1681526020018461ffff1661ffff16815260200183815260200182810382528a818151815260200191508051906020019080838360005b838110156106da5780820151818401526020810190506106bf565b50505050905090810190601f1680156107075780820380516001836020036101000a031916815260200191505b50995050505050505050505060405180910390f35b34801561072857600080fd5b506107556004803603602081101561073f57600080fd5b8101908080359060200190929190505050611580565b604051808260ff1660ff16815260200191505060405180910390f35b34801561077d57600080fd5b506107c86004803603606081101561079457600080fd5b81019080803561ffff169060200190929190803560ff169060200190929190803560ff169060200190929190505050611594565b6040518082815260200191505060405180910390f35b3480156107ea57600080fd5b506107f36115af565b604051808273ffffffffffffffffffffffffffffffffffffffff1673ffffffffffffffffffffffffffffffffffffffff16815260200191505060405180910390f35b34801561084157600080fd5b5061084a6115d8565b604051808215151515815260200191505060405180910390f35b34801561087057600080fd5b506108e2600480360360c081101561088757600080fd5b81019080803561ffff169060200190929190803560ff169060200190929190803560ff169060200190929190803560ff169060200190929190803560ff169060200190929190803560ff16906020019092919050505061162f565b6040518082815260200191505060405180910390f35b34801561090457600080fd5b506109316004803603602081101561091b57600080fd5b81019080803590602001909291905050506118ba565b604051808261ffff1661ffff16815260200191505060405180910390f35b34801561095b57600080fd5b50610a7a600480360360e081101561097257600080fd5b810190808035906020019064010000000081111561098f57600080fd5b8201836020820111156109a157600080fd5b803590602001918460018302840111640100000000831117156109c357600080fd5b9091929391929390803573ffffffffffffffffffffffffffffffffffffffff16906020019092919080359060200190929190803560ff169060200190929190803560ff169060200190929190803561ffff16906020019092919080359060200190640100000000811115610a3657600080fd5b820183602082011115610a4857600080fd5b80359060200191846001830284011164010000000083111715610a6a57600080fd5b9091929391929390505050611963565b005b348015610a8857600080fd5b50610ab560048036036020811015610a9f57600080fd5b8101908080359060200190929190505050611d72565b604051808260ff1660ff16815260200191505060405180910390f35b348015610add57600080fd5b50610b0e60048036036020811015610af457600080fd5b81019080803561ffff169060200190929190505050611d88565b604051808215151515815260200191505060405180910390f35b348015610b3457600080fd5b50610b6160048036036020811015610b4b57600080fd5b8101908080359060200190929190505050611dfd565b6040518082815260200191505060405180910390f35b348015610b8357600080fd5b50610bc160048036036040811015610b9a57600080fd5b81019080803560ff169060200190929190803561ffff169060200190929190505050611e30565b604051808260ff1660ff16815260200191505060405180910390f35b348015610be957600080fd5b50610bf2611efc565b6040518082815260200191505060405180910390f35b348015610c1457600080fd5b50610c1d611f43565b604051808261ffff1661ffff16815260200191505060405180910390f35b610c43611f53565b005b348015610c5157600080fd5b50610c5a612074565b604051808260ff1660ff16815260200191505060405180910390f35b348015610c8257600080fd5b50610cc560048036036020811015610c9957600080fd5b81019080803573ffffffffffffffffffffffffffffffffffffffff169060200190929190505050612084565b005b348015610cd357600080fd5b50610cdc6120a1565b6040518080602001828103825283818151815260200191508051906020019080838360005b83811015610d1c578082015181840152602081019050610d01565b50505050905090810190601f168015610d495780820380516001836020036101000a031916815260200191505b509250505060405180910390f35b348015610d6357600080fd5b50610d9060048036036020811015610d7a57600080fd5b8101908080359060200190929190505050612176565b604051808260ff1660ff16815260200191505060405180910390f35b600060405160200180807f6461696c79000000000000000000000000000000000000000000000000000000815250600501905060405160208183030381529060405280519060200120826040516020018082805190602001908083835b60208310610e2c5780518252602082019150602081019050602083039250610e09565b6001836020036101000a038019825116818451168082178552505050505050905001915050604051602081830303815290604052805190602001201415610e78576201518090506110d8565b60405160200180807f7765656b6c790000000000000000000000000000000000000000000000000000815250600601905060405160208183030381529060405280519060200120826040516020018082805190602001908083835b60208310610ef65780518252602082019150602081019050602083039250610ed3565b6001836020036101000a038019825116818451168082178552505050505050905001915050604051602081830303815290604052805190602001201415610f425762093a8090506110d8565b60405160200180807f6d6f6e74686c7900000000000000000000000000000000000000000000000000815250600701905060405160208183030381529060405280519060200120826040516020018082805190602001908083835b60208310610fc05780518252602082019150602081019050602083039250610f9d565b6001836020036101000a03801982511681845116808217855250505050505090500191505060405160208183030381529060405280519060200120141561100c5762278d0090506110d8565b60405160200180807f796561726c790000000000000000000000000000000000000000000000000000815250600601905060405160208183030381529060405280519060200120826040516020018082805190602001908083835b6020831061108a5780518252602082019150602081019050602083039250611067565b6001836020036101000a0380198251168184511680821785525050505050509050019150506040516020818303038152906040528051906020012014156110d7576301e1338090506110d8565b5b919050565b600030905090565b60006018603c8084816110f457fe5b04816110fc57fe5b048161110457fe5b069050919050565b60006111174261132a565b905090565b6000600260003373ffffffffffffffffffffffffffffffffffffffff1673ffffffffffffffffffffffffffffffffffffffff1681526020019081526020016000205482111561116a57600080fd5b3373ffffffffffffffffffffffffffffffffffffffff166108fc839081150290604051600060405180830381858888f193505050501580156111b0573d6000803e3d6000fd5b5081600260003373ffffffffffffffffffffffffffffffffffffffff1673ffffffffffffffffffffffffffffffffffffffff1681526020019081526020016000205403600260003373ffffffffffffffffffffffffffffffffffffffff1673ffffffffffffffffffffffffffffffffffffffff168152602001908152602001600020819055503373ffffffffffffffffffffffffffffffffffffffff167fa448afda7ea1e3a7a10fcab0c29fe9a9dd85791503bf0171f281521551c7ec05600260003373ffffffffffffffffffffffffffffffffffffffff1673ffffffffffffffffffffffffffffffffffffffff168152602001908152602001600020546040518082815260200191505060405180910390a260019050919050565b6000600760046201518084816112de57fe5b0401816112e757fe5b069050919050565b60003073ffffffffffffffffffffffffffffffffffffffff1631905090565b600061131f8686868686600061162f565b905095945050505050565b600061133582612193565b604001519050919050565b6113486115d8565b61135157600080fd5b600073ffffffffffffffffffffffffffffffffffffffff166000809054906101000a900473ffffffffffffffffffffffffffffffffffffffff1673ffffffffffffffffffffffffffffffffffffffff167f8be0079c531659141344cd1fd0a4f28419497f9722a3daafe3b4186f6b6457e060405160405180910390a360008060006101000a81548173ffffffffffffffffffffffffffffffffffffffff021916908373ffffffffffffffffffffffffffffffffffffffff160217905550565b60006114218585858560008061162f565b9050949350505050565b6001818154811061143857fe5b9060005260206000209060060201600091509050806000018054600181600116156101000203166002900480601f0160208091040260200160405190810160405280929190818152602001828054600181600116156101000203166002900480156114e45780601f106114b9576101008083540402835291602001916114e4565b820191906000526020600020905b8154815290600101906020018083116114c757829003601f168201915b5050505050908060010160009054906101000a900473ffffffffffffffffffffffffffffffffffffffff16908060020160009054906101000a900473ffffffffffffffffffffffffffffffffffffffff16908060030154908060040160009054906101000a900460ff16908060040160019054906101000a900460ff16908060040160029054906101000a900461ffff16908060050154905088565b6000603c828161158c57fe5b069050919050565b60006115a6848484600080600061162f565b90509392505050565b60008060009054906101000a900473ffffffffffffffffffffffffffffffffffffffff16905090565b60008060009054906101000a900473ffffffffffffffffffffffffffffffffffffffff1673ffffffffffffffffffffffffffffffffffffffff163373ffffffffffffffffffffffffffffffffffffffff1614905090565b6000806107b290505b8761ffff168161ffff16101561167b5761165181611d88565b15611664576301e285008201915061166e565b6301e13380820191505b8080600101915050611638565b6116836126eb565b601f816000600c811061169257fe5b602002019060ff16908160ff16815250506116ac89611d88565b156116d657601d816001600c81106116c057fe5b602002019060ff16908160ff16815250506116f7565b601c816001600c81106116e557fe5b602002019060ff16908160ff16815250505b601f816002600c811061170657fe5b602002019060ff16908160ff1681525050601e816003600c811061172657fe5b602002019060ff16908160ff1681525050601f816004600c811061174657fe5b602002019060ff16908160ff1681525050601e816005600c811061176657fe5b602002019060ff16908160ff1681525050601f816006600c811061178657fe5b602002019060ff16908160ff1681525050601f816007600c81106117a657fe5b602002019060ff16908160ff1681525050601e816008600c81106117c657fe5b602002019060ff16908160ff1681525050601f816009600c81106117e657fe5b602002019060ff16908160ff1681525050601e81600a600c811061180657fe5b602002019060ff16908160ff1681525050601f81600b600c811061182657fe5b602002019060ff16908160ff1681525050600191505b8760ff168261ffff16101561187c57806001830361ffff16600c811061185e57fe5b602002015160ff16620151800283019250818060010192505061183c565b6001870360ff166201518002830192508560ff16610e1002830192508460ff16603c02830192508360ff168301925082925050509695505050505050565b600080600090506000806301e1338085816118d157fe5b046107b261ffff160191506118eb6107b261ffff16611dfd565b6118f88361ffff16611dfd565b039050806301e285000283019250806107b2830361ffff16036301e1338002830192505b848311156119585761193060018303611d88565b15611943576301e285008303925061194d565b6301e13380830392505b60018203915061191c565b819350505050919050565b61196b61270e565b6040518061010001604052808b8b8080601f016020809104026020016040519081016040528093929190818152602001838380828437600081840152601f19601f8201169050808301925050505050505081526020013373ffffffffffffffffffffffffffffffffffffffff1681526020018973ffffffffffffffffffffffffffffffffffffffff1681526020018881526020018760ff1681526020018660ff1681526020018561ffff168152602001611a6885858080601f016020809104026020016040519081016040528093929190818152602001838380828437600081840152601f19601f82011690508083019250505050505050610dac565b8152509050600181908060018154018082558091505090600182039060005260206000209060060201600090919290919091506000820151816000019080519060200190611ab7929190612789565b5060208201518160010160006101000a81548173ffffffffffffffffffffffffffffffffffffffff021916908373ffffffffffffffffffffffffffffffffffffffff16021790555060408201518160020160006101000a81548173ffffffffffffffffffffffffffffffffffffffff021916908373ffffffffffffffffffffffffffffffffffffffff1602179055506060820151816003015560808201518160040160006101000a81548160ff021916908360ff16021790555060a08201518160040160016101000a81548160ff021916908360ff16021790555060c08201518160040160026101000a81548161ffff021916908361ffff16021790555060e0820151816005015550505080600360003373ffffffffffffffffffffffffffffffffffffffff1673ffffffffffffffffffffffffffffffffffffffff16815260200190815260200160002060008a73ffffffffffffffffffffffffffffffffffffffff1673ffffffffffffffffffffffffffffffffffffffff1681526020019081526020016000206000820151816000019080519060200190611c5b929190612789565b5060208201518160010160006101000a81548173ffffffffffffffffffffffffffffffffffffffff021916908373ffffffffffffffffffffffffffffffffffffffff16021790555060408201518160020160006101000a81548173ffffffffffffffffffffffffffffffffffffffff021916908373ffffffffffffffffffffffffffffffffffffffff1602179055506060820151816003015560808201518160040160006101000a81548160ff021916908360ff16021790555060a08201518160040160016101000a81548160ff021916908360ff16021790555060c08201518160040160026101000a81548161ffff021916908361ffff16021790555060e0820151816005015590505050505050505050505050565b6000611d7d82612193565b602001519050919050565b60008060048361ffff1681611d9957fe5b0661ffff1614611dac5760009050611df8565b600060648361ffff1681611dbc57fe5b0661ffff1614611dcf5760019050611df8565b60006101908361ffff1681611de057fe5b0661ffff1614611df35760009050611df8565b600190505b919050565b60006001820391506101908281611e1057fe5b0460648381611e1b57fe5b0460048481611e2657fe5b0403019050919050565b600060018360ff161480611e47575060038360ff16145b80611e55575060058360ff16145b80611e63575060078360ff16145b80611e71575060088360ff16145b80611e7f5750600a8360ff16145b80611e8d5750600c8360ff16145b15611e9b57601f9050611ef6565b60048360ff161480611eb0575060068360ff16145b80611ebe575060098360ff16145b80611ecc5750600b8360ff16145b15611eda57601e9050611ef6565b611ee382611d88565b15611ef157601d9050611ef6565b601c90505b92915050565b6000600260003373ffffffffffffffffffffffffffffffffffffffff1673ffffffffffffffffffffffffffffffffffffffff16815260200190815260200160002054905090565b6000611f4e426118ba565b905090565b60003411611f6057600080fd5b34600260003373ffffffffffffffffffffffffffffffffffffffff1673ffffffffffffffffffffffffffffffffffffffff1681526020019081526020016000205401600260003373ffffffffffffffffffffffffffffffffffffffff1673ffffffffffffffffffffffffffffffffffffffff168152602001908152602001600020819055503373ffffffffffffffffffffffffffffffffffffffff167fa448afda7ea1e3a7a10fcab0c29fe9a9dd85791503bf0171f281521551c7ec05600260003373ffffffffffffffffffffffffffffffffffffffff1673ffffffffffffffffffffffffffffffffffffffff168152602001908152602001600020546040518082815260200191505060405180910390a2565b600061207f42611d72565b905090565b61208c6115d8565b61209557600080fd5b61209e81612330565b50565b606060008090505b600180549050811015612139576000600182815481106120c557fe5b906000526020600020906006020190506120de81612428565b1561212b576120ec816124b7565b6040518060400160405280600381526020017f616263000000000000000000000000000000000000000000000000000000000081525092505050612173565b5080806001019150506120a9565b506040518060400160405280600381526020017f646566000000000000000000000000000000000000000000000000000000000081525090505b90565b6000603c80838161218357fe5b048161218b57fe5b069050919050565b61219b612809565b60008090506000806121ac856118ba565b846000019061ffff16908161ffff16815250506121ce6107b261ffff16611dfd565b6121df856000015161ffff16611dfd565b039150816301e285000283019250816107b285600001510361ffff16036301e1338002830192506000600191505b600c8260ff161161226357612226828660000151611e30565b60ff16620151800290508584820111156122515781856020019060ff16908160ff1681525050612263565b8084019350818060010192505061220d565b600191505b61227a85602001518660000151611e30565b60ff168260ff16116122bf578584620151800111156122aa5781856040019060ff16908160ff16815250506122bf565b62015180840193508180600101925050612268565b6122c8866110e5565b856060019060ff16908160ff16815250506122e286612176565b856080019060ff16908160ff16815250506122fc86611580565b8560a0019060ff16908160ff1681525050612316866112cc565b8560c0019060ff16908160ff168152505050505050919050565b600073ffffffffffffffffffffffffffffffffffffffff168173ffffffffffffffffffffffffffffffffffffffff16141561236a57600080fd5b8073ffffffffffffffffffffffffffffffffffffffff166000809054906101000a900473ffffffffffffffffffffffffffffffffffffffff1673ffffffffffffffffffffffffffffffffffffffff167f8be0079c531659141344cd1fd0a4f28419497f9722a3daafe3b4186f6b6457e060405160405180910390a3806000806101000a81548173ffffffffffffffffffffffffffffffffffffffff021916908373ffffffffffffffffffffffffffffffffffffffff16021790555050565b6000612433426118ba565b61ffff168260040160029054906101000a900461ffff1661ffff16148015612479575061245f42611d72565b60ff168260040160019054906101000a900460ff1660ff16145b80156124a357506124894261132a565b60ff168260040160009054906101000a900460ff1660ff16145b156124b157600190506124b2565b5b919050565b8060030154600260008360010160009054906101000a900473ffffffffffffffffffffffffffffffffffffffff1673ffffffffffffffffffffffffffffffffffffffff1673ffffffffffffffffffffffffffffffffffffffff16815260200190815260200160002054101561252b57600080fd5b8060020160009054906101000a900473ffffffffffffffffffffffffffffffffffffffff1673ffffffffffffffffffffffffffffffffffffffff166108fc82600301549081150290604051600060405180830381858888f19350505050158015612599573d6000803e3d6000fd5b508060030154600260008360010160009054906101000a900473ffffffffffffffffffffffffffffffffffffffff1673ffffffffffffffffffffffffffffffffffffffff1673ffffffffffffffffffffffffffffffffffffffff1681526020019081526020016000205403600260008360010160009054906101000a900473ffffffffffffffffffffffffffffffffffffffff1673ffffffffffffffffffffffffffffffffffffffff1673ffffffffffffffffffffffffffffffffffffffff16815260200190815260200160002081905550600081600501544201905061267f8161132a565b8260040160006101000a81548160ff021916908360ff1602179055506126a481611d72565b8260040160016101000a81548160ff021916908360ff1602179055506126c9816118ba565b8260040160026101000a81548161ffff021916908361ffff1602179055505050565b604051806101800160405280600c90602082028038833980820191505090505090565b60405180610100016040528060608152602001600073ffffffffffffffffffffffffffffffffffffffff168152602001600073ffffffffffffffffffffffffffffffffffffffff16815260200160008152602001600060ff168152602001600060ff168152602001600061ffff168152602001600081525090565b828054600181600116156101000203166002900490600052602060002090601f016020900481019282601f106127ca57805160ff19168380011785556127f8565b828001600101855582156127f8579182015b828111156127f75782518255916020019190600101906127dc565b5b509050612805919061285c565b5090565b6040518060e00160405280600061ffff168152602001600060ff168152602001600060ff168152602001600060ff168152602001600060ff168152602001600060ff168152602001600060ff1681525090565b61287e91905b8082111561287a576000816000905550600101612862565b5090565b9056fea265627a7a72315820c30f0d8674c5c37256abbc15c9299f9c61febfe728cabb85e6f553380346accb64736f6c63430005100032",
  "source": "pragma solidity ^0.5.0;\n\nimport \"./ownable.sol\";\nimport \"./datetime.sol\";\n\ncontract OnePay is Ownable, DateTime {\n\n    event BalanceChanged(address indexed _owner, uint256 _newBalance);\n\n    struct Payment {\n        string name;\n        address from;\n        address payable to;\n        uint amount;\n        uint8 nextDay;\n        uint8 nextMonth;\n        uint16 nextYear;\n        uint interval;\n    }\n\n    Payment[] public payments;\n\n    mapping (address => uint256) ownerToBalance; \n    mapping (address =>mapping(address=> Payment)) ownerToPayment;\n\n    constructor() public {\n        ownerToBalance[msg.sender] = 0;\n    }\n\n    function getSmartContractBalance() external view returns(uint256){\n        return address(this).balance;\n    }\n\n    function getUserBalance() external view returns(uint256){\n        return ownerToBalance[msg.sender];\n    }\n\n    function getAddress() external view returns(address){\n        return address(this);\n    }\n\n    function fundAccount() external payable {\n        require(msg.value>0);\n        ownerToBalance[msg.sender] = ownerToBalance[msg.sender]+msg.value;\n        emit BalanceChanged(msg.sender, ownerToBalance[msg.sender]);\n    }\n\n    function withdrawFromAccount(uint256 _amount) external returns (bool){\n        require(_amount<=ownerToBalance[msg.sender]);\n        msg.sender.transfer(_amount);\n        ownerToBalance[msg.sender] = ownerToBalance[msg.sender] - _amount;\n        emit BalanceChanged(msg.sender, ownerToBalance[msg.sender]);\n        return true;\n    }\n\n    function getInterval(string memory _interval) public returns (uint){\n        if(keccak256(abi.encodePacked(_interval)) ==keccak256(abi.encodePacked(\"daily\"))){\n            return 1 days;\n        }\n        if(keccak256(abi.encodePacked(_interval)) ==keccak256(abi.encodePacked(\"weekly\"))){\n            return 7 days;\n        }\n        if(keccak256(abi.encodePacked(_interval)) ==keccak256(abi.encodePacked(\"monthly\"))){\n            return 30 days;\n        }\n        if(keccak256(abi.encodePacked(_interval)) ==keccak256(abi.encodePacked(\"yearly\"))){\n            return 365 days;\n        }\n    }\n\n    function addNewBeneficiary(string calldata _name, address payable _to, uint _amount, uint8 _day, uint8 _month, uint16 _year, string calldata _interval) external {\n        Payment memory newPayment = Payment(\n            _name,\n            msg.sender,\n            _to,\n            _amount,\n            _day,\n            _month,\n            _year, \n            getInterval(_interval)\n        );\n        payments.push(newPayment);\n        ownerToPayment[msg.sender][_to] =  newPayment;\n    }\n\n    function getCurrentDay() public view returns(uint8){\n        return getDay(now);\n    }\n    function getCurrentMonth() public view returns(uint8){\n        return getMonth(now);\n\n    }\n        function getCurrentYear() public view returns(uint16){\n        return getYear(now);\n\n    }\n\n    function paymentToday(Payment storage _payment) internal returns(bool){\n        if( _payment.nextYear == getYear(now) && _payment.nextMonth == getMonth(now) && _payment.nextDay == getDay(now)){\n            return true;\n        }\n    }\n\n    function sendPayment(Payment storage _payment)internal{\n        require(ownerToBalance[_payment.from] >= _payment.amount);\n        _payment.to.transfer(_payment.amount);\n        ownerToBalance[_payment.from] = ownerToBalance[_payment.from]-_payment.amount;\n        uint nextTimeStamp = now + _payment.interval;\n        _payment.nextDay = getDay(nextTimeStamp);\n        _payment.nextMonth = getMonth(nextTimeStamp);\n        _payment.nextYear = getYear(nextTimeStamp);\n\n\n    }\n\n    function dispersePayments() public returns (string memory){\n        for(uint i = 0; i < payments.length; i++){\n            Payment storage currentPayment = payments[i];\n            if(paymentToday(currentPayment)){\n                sendPayment(currentPayment);\n                return \"abc\";\n            }\n        }\n                        return \"def\";\n\n    }\n  \n\n\n}",
  "sourcePath": "/Users/eddyreynoso/Desktop/defi/src/contracts/OnePay.sol",
  "compiler": {
    "name": "solc",
    "version": "0.5.16+commit.9c3226ce.Emscripten.clang"
  },
  "schemaVersion": "3.2.3",
  "updatedAt": "2021-05-12T04:20:04.446Z",
  "networkType": "ethereum",
  "devdoc": {
    "methods": {
      "isOwner()": {
        "return": "true if `msg.sender` is the owner of the contract."
      },
      "owner()": {
        "return": "the address of the owner."
      },
      "renounceOwnership()": {
        "details": "Allows the current owner to relinquish control of the contract."
      },
      "transferOwnership(address)": {
        "details": "Allows the current owner to transfer control of the contract to a newOwner.",
        "params": {
          "newOwner": "The address to transfer ownership to."
        }
      }
    }
  },
  "userdoc": {
    "methods": {
      "renounceOwnership()": {
        "notice": "Renouncing to ownership will leave the contract without an owner. It will not be possible to call the functions with the `onlyOwner` modifier anymore."
      }
    }
  }
}