{
  "contractName": "OnePay",
  "abi": [
    {
      "inputs": [],
      "payable": false,
      "stateMutability": "nonpayable",
      "type": "constructor"
    },
    {
      "anonymous": false,
      "inputs": [
        {
          "indexed": true,
          "internalType": "address",
          "name": "_owner",
          "type": "address"
        },
        {
          "indexed": false,
          "internalType": "uint256",
          "name": "_newBalance",
          "type": "uint256"
        }
      ],
      "name": "BalanceChanged",
      "type": "event"
    },
    {
      "anonymous": false,
      "inputs": [
        {
          "indexed": true,
          "internalType": "address",
          "name": "_owner",
          "type": "address"
        }
      ],
      "name": "BeneficionariesChanged",
      "type": "event"
    },
    {
      "anonymous": false,
      "inputs": [
        {
          "indexed": true,
          "internalType": "address",
          "name": "previousOwner",
          "type": "address"
        },
        {
          "indexed": true,
          "internalType": "address",
          "name": "newOwner",
          "type": "address"
        }
      ],
      "name": "OwnershipTransferred",
      "type": "event"
    },
    {
      "constant": true,
      "inputs": [
        {
          "internalType": "uint256",
          "name": "timestamp",
          "type": "uint256"
        }
      ],
      "name": "getDay",
      "outputs": [
        {
          "internalType": "uint8",
          "name": "",
          "type": "uint8"
        }
      ],
      "payable": false,
      "stateMutability": "pure",
      "type": "function"
    },
    {
      "constant": true,
      "inputs": [
        {
          "internalType": "uint8",
          "name": "month",
          "type": "uint8"
        },
        {
          "internalType": "uint16",
          "name": "year",
          "type": "uint16"
        }
      ],
      "name": "getDaysInMonth",
      "outputs": [
        {
          "internalType": "uint8",
          "name": "",
          "type": "uint8"
        }
      ],
      "payable": false,
      "stateMutability": "pure",
      "type": "function"
    },
    {
      "constant": true,
      "inputs": [
        {
          "internalType": "uint256",
          "name": "timestamp",
          "type": "uint256"
        }
      ],
      "name": "getHour",
      "outputs": [
        {
          "internalType": "uint8",
          "name": "",
          "type": "uint8"
        }
      ],
      "payable": false,
      "stateMutability": "pure",
      "type": "function"
    },
    {
      "constant": true,
      "inputs": [
        {
          "internalType": "uint256",
          "name": "timestamp",
          "type": "uint256"
        }
      ],
      "name": "getMinute",
      "outputs": [
        {
          "internalType": "uint8",
          "name": "",
          "type": "uint8"
        }
      ],
      "payable": false,
      "stateMutability": "pure",
      "type": "function"
    },
    {
      "constant": true,
      "inputs": [
        {
          "internalType": "uint256",
          "name": "timestamp",
          "type": "uint256"
        }
      ],
      "name": "getMonth",
      "outputs": [
        {
          "internalType": "uint8",
          "name": "",
          "type": "uint8"
        }
      ],
      "payable": false,
      "stateMutability": "pure",
      "type": "function"
    },
    {
      "constant": true,
      "inputs": [
        {
          "internalType": "uint256",
          "name": "timestamp",
          "type": "uint256"
        }
      ],
      "name": "getSecond",
      "outputs": [
        {
          "internalType": "uint8",
          "name": "",
          "type": "uint8"
        }
      ],
      "payable": false,
      "stateMutability": "pure",
      "type": "function"
    },
    {
      "constant": true,
      "inputs": [
        {
          "internalType": "uint256",
          "name": "timestamp",
          "type": "uint256"
        }
      ],
      "name": "getWeekday",
      "outputs": [
        {
          "internalType": "uint8",
          "name": "",
          "type": "uint8"
        }
      ],
      "payable": false,
      "stateMutability": "pure",
      "type": "function"
    },
    {
      "constant": true,
      "inputs": [
        {
          "internalType": "uint256",
          "name": "timestamp",
          "type": "uint256"
        }
      ],
      "name": "getYear",
      "outputs": [
        {
          "internalType": "uint16",
          "name": "",
          "type": "uint16"
        }
      ],
      "payable": false,
      "stateMutability": "pure",
      "type": "function"
    },
    {
      "constant": true,
      "inputs": [
        {
          "internalType": "uint16",
          "name": "year",
          "type": "uint16"
        }
      ],
      "name": "isLeapYear",
      "outputs": [
        {
          "internalType": "bool",
          "name": "",
          "type": "bool"
        }
      ],
      "payable": false,
      "stateMutability": "pure",
      "type": "function"
    },
    {
      "constant": true,
      "inputs": [],
      "name": "isOwner",
      "outputs": [
        {
          "internalType": "bool",
          "name": "",
          "type": "bool"
        }
      ],
      "payable": false,
      "stateMutability": "view",
      "type": "function"
    },
    {
      "constant": true,
      "inputs": [
        {
          "internalType": "uint256",
          "name": "year",
          "type": "uint256"
        }
      ],
      "name": "leapYearsBefore",
      "outputs": [
        {
          "internalType": "uint256",
          "name": "",
          "type": "uint256"
        }
      ],
      "payable": false,
      "stateMutability": "pure",
      "type": "function"
    },
    {
      "constant": true,
      "inputs": [],
      "name": "owner",
      "outputs": [
        {
          "internalType": "address",
          "name": "",
          "type": "address"
        }
      ],
      "payable": false,
      "stateMutability": "view",
      "type": "function"
    },
    {
      "constant": true,
      "inputs": [
        {
          "internalType": "uint256",
          "name": "",
          "type": "uint256"
        }
      ],
      "name": "payments",
      "outputs": [
        {
          "internalType": "uint256",
          "name": "id",
          "type": "uint256"
        },
        {
          "internalType": "string",
          "name": "name",
          "type": "string"
        },
        {
          "internalType": "string",
          "name": "category",
          "type": "string"
        },
        {
          "internalType": "address",
          "name": "from",
          "type": "address"
        },
        {
          "internalType": "address payable",
          "name": "to",
          "type": "address"
        },
        {
          "internalType": "uint256",
          "name": "amount",
          "type": "uint256"
        },
        {
          "internalType": "uint8",
          "name": "nextDay",
          "type": "uint8"
        },
        {
          "internalType": "uint8",
          "name": "nextMonth",
          "type": "uint8"
        },
        {
          "internalType": "uint16",
          "name": "nextYear",
          "type": "uint16"
        },
        {
          "internalType": "uint256",
          "name": "interval",
          "type": "uint256"
        },
        {
          "internalType": "bool",
          "name": "active",
          "type": "bool"
        }
      ],
      "payable": false,
      "stateMutability": "view",
      "type": "function"
    },
    {
      "constant": false,
      "inputs": [],
      "name": "renounceOwnership",
      "outputs": [],
      "payable": false,
      "stateMutability": "nonpayable",
      "type": "function"
    },
    {
      "constant": true,
      "inputs": [
        {
          "internalType": "uint16",
          "name": "year",
          "type": "uint16"
        },
        {
          "internalType": "uint8",
          "name": "month",
          "type": "uint8"
        },
        {
          "internalType": "uint8",
          "name": "day",
          "type": "uint8"
        },
        {
          "internalType": "uint8",
          "name": "hour",
          "type": "uint8"
        },
        {
          "internalType": "uint8",
          "name": "minute",
          "type": "uint8"
        }
      ],
      "name": "toTimestamp",
      "outputs": [
        {
          "internalType": "uint256",
          "name": "timestamp",
          "type": "uint256"
        }
      ],
      "payable": false,
      "stateMutability": "pure",
      "type": "function"
    },
    {
      "constant": true,
      "inputs": [
        {
          "internalType": "uint16",
          "name": "year",
          "type": "uint16"
        },
        {
          "internalType": "uint8",
          "name": "month",
          "type": "uint8"
        },
        {
          "internalType": "uint8",
          "name": "day",
          "type": "uint8"
        },
        {
          "internalType": "uint8",
          "name": "hour",
          "type": "uint8"
        }
      ],
      "name": "toTimestamp",
      "outputs": [
        {
          "internalType": "uint256",
          "name": "timestamp",
          "type": "uint256"
        }
      ],
      "payable": false,
      "stateMutability": "pure",
      "type": "function"
    },
    {
      "constant": true,
      "inputs": [
        {
          "internalType": "uint16",
          "name": "year",
          "type": "uint16"
        },
        {
          "internalType": "uint8",
          "name": "month",
          "type": "uint8"
        },
        {
          "internalType": "uint8",
          "name": "day",
          "type": "uint8"
        }
      ],
      "name": "toTimestamp",
      "outputs": [
        {
          "internalType": "uint256",
          "name": "timestamp",
          "type": "uint256"
        }
      ],
      "payable": false,
      "stateMutability": "pure",
      "type": "function"
    },
    {
      "constant": true,
      "inputs": [
        {
          "internalType": "uint16",
          "name": "year",
          "type": "uint16"
        },
        {
          "internalType": "uint8",
          "name": "month",
          "type": "uint8"
        },
        {
          "internalType": "uint8",
          "name": "day",
          "type": "uint8"
        },
        {
          "internalType": "uint8",
          "name": "hour",
          "type": "uint8"
        },
        {
          "internalType": "uint8",
          "name": "minute",
          "type": "uint8"
        },
        {
          "internalType": "uint8",
          "name": "second",
          "type": "uint8"
        }
      ],
      "name": "toTimestamp",
      "outputs": [
        {
          "internalType": "uint256",
          "name": "timestamp",
          "type": "uint256"
        }
      ],
      "payable": false,
      "stateMutability": "pure",
      "type": "function"
    },
    {
      "constant": false,
      "inputs": [
        {
          "internalType": "address",
          "name": "newOwner",
          "type": "address"
        }
      ],
      "name": "transferOwnership",
      "outputs": [],
      "payable": false,
      "stateMutability": "nonpayable",
      "type": "function"
    },
    {
      "constant": true,
      "inputs": [],
      "name": "getSmartContractBalance",
      "outputs": [
        {
          "internalType": "uint256",
          "name": "",
          "type": "uint256"
        }
      ],
      "payable": false,
      "stateMutability": "view",
      "type": "function"
    },
    {
      "constant": true,
      "inputs": [],
      "name": "getUserBalance",
      "outputs": [
        {
          "internalType": "uint256",
          "name": "",
          "type": "uint256"
        }
      ],
      "payable": false,
      "stateMutability": "view",
      "type": "function"
    },
    {
      "constant": true,
      "inputs": [],
      "name": "getAddress",
      "outputs": [
        {
          "internalType": "address",
          "name": "",
          "type": "address"
        }
      ],
      "payable": false,
      "stateMutability": "view",
      "type": "function"
    },
    {
      "constant": false,
      "inputs": [],
      "name": "fundAccount",
      "outputs": [],
      "payable": true,
      "stateMutability": "payable",
      "type": "function"
    },
    {
      "constant": false,
      "inputs": [
        {
          "internalType": "uint256",
          "name": "_amount",
          "type": "uint256"
        }
      ],
      "name": "withdrawFromAccount",
      "outputs": [],
      "payable": false,
      "stateMutability": "nonpayable",
      "type": "function"
    },
    {
      "constant": true,
      "inputs": [
        {
          "internalType": "string",
          "name": "_interval",
          "type": "string"
        }
      ],
      "name": "getInterval",
      "outputs": [
        {
          "internalType": "uint256",
          "name": "",
          "type": "uint256"
        }
      ],
      "payable": false,
      "stateMutability": "pure",
      "type": "function"
    },
    {
      "constant": false,
      "inputs": [
        {
          "internalType": "string",
          "name": "_name",
          "type": "string"
        },
        {
          "internalType": "string",
          "name": "_category",
          "type": "string"
        },
        {
          "internalType": "address payable",
          "name": "_to",
          "type": "address"
        },
        {
          "internalType": "uint256",
          "name": "_amount",
          "type": "uint256"
        },
        {
          "internalType": "uint8",
          "name": "_day",
          "type": "uint8"
        },
        {
          "internalType": "uint8",
          "name": "_month",
          "type": "uint8"
        },
        {
          "internalType": "uint16",
          "name": "_year",
          "type": "uint16"
        },
        {
          "internalType": "string",
          "name": "_interval",
          "type": "string"
        }
      ],
      "name": "addNewBeneficiary",
      "outputs": [],
      "payable": false,
      "stateMutability": "nonpayable",
      "type": "function"
    },
    {
      "constant": true,
      "inputs": [],
      "name": "getCurrentDay",
      "outputs": [
        {
          "internalType": "uint8",
          "name": "",
          "type": "uint8"
        }
      ],
      "payable": false,
      "stateMutability": "view",
      "type": "function"
    },
    {
      "constant": true,
      "inputs": [],
      "name": "getCurrentMonth",
      "outputs": [
        {
          "internalType": "uint8",
          "name": "",
          "type": "uint8"
        }
      ],
      "payable": false,
      "stateMutability": "view",
      "type": "function"
    },
    {
      "constant": true,
      "inputs": [],
      "name": "getCurrentYear",
      "outputs": [
        {
          "internalType": "uint16",
          "name": "",
          "type": "uint16"
        }
      ],
      "payable": false,
      "stateMutability": "view",
      "type": "function"
    },
    {
      "constant": false,
      "inputs": [],
      "name": "dispersePayments",
      "outputs": [],
      "payable": false,
      "stateMutability": "nonpayable",
      "type": "function"
    },
    {
      "constant": true,
      "inputs": [],
      "name": "getBeneficiaries",
      "outputs": [
        {
          "components": [
            {
              "internalType": "uint256",
              "name": "id",
              "type": "uint256"
            },
            {
              "internalType": "string",
              "name": "name",
              "type": "string"
            },
            {
              "internalType": "string",
              "name": "category",
              "type": "string"
            },
            {
              "internalType": "address",
              "name": "from",
              "type": "address"
            },
            {
              "internalType": "address payable",
              "name": "to",
              "type": "address"
            },
            {
              "internalType": "uint256",
              "name": "amount",
              "type": "uint256"
            },
            {
              "internalType": "uint8",
              "name": "nextDay",
              "type": "uint8"
            },
            {
              "internalType": "uint8",
              "name": "nextMonth",
              "type": "uint8"
            },
            {
              "internalType": "uint16",
              "name": "nextYear",
              "type": "uint16"
            },
            {
              "internalType": "uint256",
              "name": "interval",
              "type": "uint256"
            },
            {
              "internalType": "bool",
              "name": "active",
              "type": "bool"
            }
          ],
          "internalType": "struct OnePay.Payment[]",
          "name": "",
          "type": "tuple[]"
        }
      ],
      "payable": false,
      "stateMutability": "view",
      "type": "function"
    },
    {
      "constant": false,
      "inputs": [
        {
          "internalType": "uint256",
          "name": "_id",
          "type": "uint256"
        }
      ],
      "name": "toggleBeneficiary",
      "outputs": [],
      "payable": false,
      "stateMutability": "nonpayable",
      "type": "function"
    }
  ],
  "bytecode": "0x608060405234801561001057600080fd5b50336000806101000a81548173ffffffffffffffffffffffffffffffffffffffff021916908373ffffffffffffffffffffffffffffffffffffffff1602179055506000809054906101000a900473ffffffffffffffffffffffffffffffffffffffff1673ffffffffffffffffffffffffffffffffffffffff16600073ffffffffffffffffffffffffffffffffffffffff167f8be0079c531659141344cd1fd0a4f28419497f9722a3daafe3b4186f6b6457e060405160405180910390a36000600260003373ffffffffffffffffffffffffffffffffffffffff1673ffffffffffffffffffffffffffffffffffffffff16815260200190815260200160002081905550613864806101216000396000f3fe6080604052600436106101e35760003560e01c80638f32d59b11610102578063b7013dc111610095578063e1c04a4411610064578063e1c04a441461077b578063f2fde38b146107a4578063f9b57319146107cd578063fa93f883146107e4576101e3565b8063b7013dc1146106f0578063ce41607a1461071b578063d9a8748c14610746578063ddd1b67e14610750576101e3565b8063a324ad24116100d1578063a324ad24146105fc578063a6f0e57714610639578063b199993714610676578063b238ad0e146106b3576101e3565b80638f32d59b1461052c5780639054bdec14610557578063913b722c1461059457806392d66313146105bf576101e3565b806362ba96871161017a57806387d817891161014957806387d81789146104405780638aa001fc146104875780638c8d98a0146104c45780638da5cb5b14610501576101e3565b806362ba96871461037257806365c72840146103af578063715018a6146103ec5780637f79183314610403576101e3565b80633e6968b6116101b65780633e6968b6146102b65780634792b098146102e15780634ac1ad781461030a5780635145cbc014610347576101e3565b80631aab3a49146101e85780632c7067dc1461021157806338cc48311461024e5780633e239e1a14610279575b600080fd5b3480156101f457600080fd5b5061020f600480360361020a9190810190613009565b610821565b005b34801561021d57600080fd5b5061023860048036036102339190810190612ded565b6108b5565b6040516102459190613522565b60405180910390f35b34801561025a57600080fd5b50610263610a32565b60405161027091906134af565b60405180910390f35b34801561028557600080fd5b506102a0600480360361029b9190810190613009565b610a3a565b6040516102ad91906135f6565b60405180910390f35b3480156102c257600080fd5b506102cb610a61565b6040516102d891906135f6565b60405180910390f35b3480156102ed57600080fd5b5061030860048036036103039190810190613009565b610a71565b005b34801561031657600080fd5b50610331600480360361032c9190810190613009565b610c19565b60405161033e91906135f6565b60405180910390f35b34801561035357600080fd5b5061035c610c3c565b6040516103699190613522565b60405180910390f35b34801561037e57600080fd5b5061039960048036036103949190810190612f09565b610c5b565b6040516103a69190613522565b60405180910390f35b3480156103bb57600080fd5b506103d660048036036103d19190810190613009565b610c77565b6040516103e391906135f6565b60405180910390f35b3480156103f857600080fd5b50610401610c8d565b005b34801561040f57600080fd5b5061042a60048036036104259190810190612ea6565b610d5d565b6040516104379190613522565b60405180910390f35b34801561044c57600080fd5b5061046760048036036104629190810190613009565b610d78565b60405161047e9b9a9998979695949392919061353d565b60405180910390f35b34801561049357600080fd5b506104ae60048036036104a99190810190613009565b610f84565b6040516104bb91906135f6565b60405180910390f35b3480156104d057600080fd5b506104eb60048036036104e69190810190612e57565b610f98565b6040516104f89190613522565b60405180910390f35b34801561050d57600080fd5b50610516610fb3565b60405161052391906134af565b60405180910390f35b34801561053857600080fd5b50610541610fdc565b60405161054e91906134ec565b60405180910390f35b34801561056357600080fd5b5061057e60048036036105799190810190612f80565b611033565b60405161058b9190613522565b60405180910390f35b3480156105a057600080fd5b506105a96112be565b6040516105b691906134ca565b60405180910390f35b3480156105cb57600080fd5b506105e660048036036105e19190810190613009565b6116a7565b6040516105f39190613507565b60405180910390f35b34801561060857600080fd5b50610623600480360361061e9190810190613009565b611750565b60405161063091906135f6565b60405180910390f35b34801561064557600080fd5b50610660600480360361065b9190810190612e2e565b611766565b60405161066d91906134ec565b60405180910390f35b34801561068257600080fd5b5061069d60048036036106989190810190613009565b6117db565b6040516106aa9190613522565b60405180910390f35b3480156106bf57600080fd5b506106da60048036036106d59190810190613032565b61180e565b6040516106e791906135f6565b60405180910390f35b3480156106fc57600080fd5b506107056118da565b6040516107129190613522565b60405180910390f35b34801561072757600080fd5b50610730611921565b60405161073d9190613507565b60405180910390f35b61074e611931565b005b34801561075c57600080fd5b50610765611a52565b60405161077291906135f6565b60405180910390f35b34801561078757600080fd5b506107a2600480360361079d9190810190612ce5565b611a62565b005b3480156107b057600080fd5b506107cb60048036036107c69190810190612cbc565b612298565b005b3480156107d957600080fd5b506107e26122b5565b005b3480156107f057600080fd5b5061080b60048036036108069190810190613009565b612401565b60405161081891906135f6565b60405180910390f35b60006001828154811061083057fe5b906000526020600020906009020190508060080160009054906101000a900460ff16158160080160006101000a81548160ff0219169083151502179055503373ffffffffffffffffffffffffffffffffffffffff167f0a79189c04c0f3c335646a007e34407f83a6fbcb6c24c426c9de6be912a6821c60405160405180910390a25050565b60006040516020016108c69061349a565b60405160208183030381529060405280519060200120826040516020016108ed9190613444565b60405160208183030381529060405280519060200120141561091457620151809050610a2d565b60405160200161092390613485565b604051602081830303815290604052805190602001208260405160200161094a9190613444565b6040516020818303038152906040528051906020012014156109715762093a809050610a2d565b6040516020016109809061345b565b60405160208183030381529060405280519060200120826040516020016109a79190613444565b6040516020818303038152906040528051906020012014156109ce5762278d009050610a2d565b6040516020016109dd90613470565b6040516020818303038152906040528051906020012082604051602001610a049190613444565b604051602081830303815290604052805190602001201415610a2c576301e133809050610a2d565b5b919050565b600030905090565b60006018603c808481610a4957fe5b0481610a5157fe5b0481610a5957fe5b069050919050565b6000610a6c42610c77565b905090565b600260003373ffffffffffffffffffffffffffffffffffffffff1673ffffffffffffffffffffffffffffffffffffffff16815260200190815260200160002054811115610abd57600080fd5b3373ffffffffffffffffffffffffffffffffffffffff166108fc829081150290604051600060405180830381858888f19350505050158015610b03573d6000803e3d6000fd5b5080600260003373ffffffffffffffffffffffffffffffffffffffff1673ffffffffffffffffffffffffffffffffffffffff1681526020019081526020016000205403600260003373ffffffffffffffffffffffffffffffffffffffff1673ffffffffffffffffffffffffffffffffffffffff168152602001908152602001600020819055503373ffffffffffffffffffffffffffffffffffffffff167fa448afda7ea1e3a7a10fcab0c29fe9a9dd85791503bf0171f281521551c7ec05600260003373ffffffffffffffffffffffffffffffffffffffff1673ffffffffffffffffffffffffffffffffffffffff16815260200190815260200160002054604051610c0e9190613522565b60405180910390a250565b600060076004620151808481610c2b57fe5b040181610c3457fe5b069050919050565b60003073ffffffffffffffffffffffffffffffffffffffff1631905090565b6000610c6c86868686866000611033565b905095945050505050565b6000610c828261241e565b604001519050919050565b610c95610fdc565b610c9e57600080fd5b600073ffffffffffffffffffffffffffffffffffffffff166000809054906101000a900473ffffffffffffffffffffffffffffffffffffffff1673ffffffffffffffffffffffffffffffffffffffff167f8be0079c531659141344cd1fd0a4f28419497f9722a3daafe3b4186f6b6457e060405160405180910390a360008060006101000a81548173ffffffffffffffffffffffffffffffffffffffff021916908373ffffffffffffffffffffffffffffffffffffffff160217905550565b6000610d6e85858585600080611033565b9050949350505050565b60018181548110610d8557fe5b9060005260206000209060090201600091509050806000015490806001018054600181600116156101000203166002900480601f016020809104026020016040519081016040528092919081815260200182805460018160011615610100020316600290048015610e375780601f10610e0c57610100808354040283529160200191610e37565b820191906000526020600020905b815481529060010190602001808311610e1a57829003601f168201915b505050505090806002018054600181600116156101000203166002900480601f016020809104026020016040519081016040528092919081815260200182805460018160011615610100020316600290048015610ed55780601f10610eaa57610100808354040283529160200191610ed5565b820191906000526020600020905b815481529060010190602001808311610eb857829003601f168201915b5050505050908060030160009054906101000a900473ffffffffffffffffffffffffffffffffffffffff16908060040160009054906101000a900473ffffffffffffffffffffffffffffffffffffffff16908060050154908060060160009054906101000a900460ff16908060060160019054906101000a900460ff16908060060160029054906101000a900461ffff16908060070154908060080160009054906101000a900460ff1690508b565b6000603c8281610f9057fe5b069050919050565b6000610faa8484846000806000611033565b90509392505050565b60008060009054906101000a900473ffffffffffffffffffffffffffffffffffffffff16905090565b60008060009054906101000a900473ffffffffffffffffffffffffffffffffffffffff1673ffffffffffffffffffffffffffffffffffffffff163373ffffffffffffffffffffffffffffffffffffffff1614905090565b6000806107b290505b8761ffff168161ffff16101561107f5761105581611766565b15611068576301e2850082019150611072565b6301e13380820191505b808060010191505061103c565b611087612976565b601f816000600c811061109657fe5b602002019060ff16908160ff16815250506110b089611766565b156110da57601d816001600c81106110c457fe5b602002019060ff16908160ff16815250506110fb565b601c816001600c81106110e957fe5b602002019060ff16908160ff16815250505b601f816002600c811061110a57fe5b602002019060ff16908160ff1681525050601e816003600c811061112a57fe5b602002019060ff16908160ff1681525050601f816004600c811061114a57fe5b602002019060ff16908160ff1681525050601e816005600c811061116a57fe5b602002019060ff16908160ff1681525050601f816006600c811061118a57fe5b602002019060ff16908160ff1681525050601f816007600c81106111aa57fe5b602002019060ff16908160ff1681525050601e816008600c81106111ca57fe5b602002019060ff16908160ff1681525050601f816009600c81106111ea57fe5b602002019060ff16908160ff1681525050601e81600a600c811061120a57fe5b602002019060ff16908160ff1681525050601f81600b600c811061122a57fe5b602002019060ff16908160ff1681525050600191505b8760ff168261ffff16101561128057806001830361ffff16600c811061126257fe5b602002015160ff166201518002830192508180600101925050611240565b6001870360ff166201518002830192508560ff16610e1002830192508460ff16603c02830192508360ff168301925082925050509695505050505050565b606080600460003373ffffffffffffffffffffffffffffffffffffffff1673ffffffffffffffffffffffffffffffffffffffff1681526020019081526020016000205460405190808252806020026020018201604052801561133a57816020015b611327612999565b81526020019060019003908161131f5790505b509050600080905060008090505b60018054905081101561169e573373ffffffffffffffffffffffffffffffffffffffff166001828154811061137957fe5b906000526020600020906009020160030160009054906101000a900473ffffffffffffffffffffffffffffffffffffffff1673ffffffffffffffffffffffffffffffffffffffff16141561169157600181815481106113d457fe5b90600052602060002090600902016040518061016001604052908160008201548152602001600182018054600181600116156101000203166002900480601f0160208091040260200160405190810160405280929190818152602001828054600181600116156101000203166002900480156114915780601f1061146657610100808354040283529160200191611491565b820191906000526020600020905b81548152906001019060200180831161147457829003601f168201915b50505050508152602001600282018054600181600116156101000203166002900480601f0160208091040260200160405190810160405280929190818152602001828054600181600116156101000203166002900480156115335780601f1061150857610100808354040283529160200191611533565b820191906000526020600020905b81548152906001019060200180831161151657829003601f168201915b505050505081526020016003820160009054906101000a900473ffffffffffffffffffffffffffffffffffffffff1673ffffffffffffffffffffffffffffffffffffffff1673ffffffffffffffffffffffffffffffffffffffff1681526020016004820160009054906101000a900473ffffffffffffffffffffffffffffffffffffffff1673ffffffffffffffffffffffffffffffffffffffff1673ffffffffffffffffffffffffffffffffffffffff168152602001600582015481526020016006820160009054906101000a900460ff1660ff1660ff1681526020016006820160019054906101000a900460ff1660ff1660ff1681526020016006820160029054906101000a900461ffff1661ffff1661ffff168152602001600782015481526020016008820160009054906101000a900460ff16151515158152505083838151811061167d57fe5b602002602001018190525081806001019250505b8080600101915050611348565b50819250505090565b600080600090506000806301e1338085816116be57fe5b046107b261ffff160191506116d86107b261ffff166117db565b6116e58361ffff166117db565b039050806301e285000283019250806107b2830361ffff16036301e1338002830192505b848311156117455761171d60018303611766565b15611730576301e285008303925061173a565b6301e13380830392505b600182039150611709565b819350505050919050565b600061175b8261241e565b602001519050919050565b60008060048361ffff168161177757fe5b0661ffff161461178a57600090506117d6565b600060648361ffff168161179a57fe5b0661ffff16146117ad57600190506117d6565b60006101908361ffff16816117be57fe5b0661ffff16146117d157600090506117d6565b600190505b919050565b600060018203915061019082816117ee57fe5b04606483816117f957fe5b046004848161180457fe5b0403019050919050565b600060018360ff161480611825575060038360ff16145b80611833575060058360ff16145b80611841575060078360ff16145b8061184f575060088360ff16145b8061185d5750600a8360ff16145b8061186b5750600c8360ff16145b1561187957601f90506118d4565b60048360ff16148061188e575060068360ff16145b8061189c575060098360ff16145b806118aa5750600b8360ff16145b156118b857601e90506118d4565b6118c182611766565b156118cf57601d90506118d4565b601c90505b92915050565b6000600260003373ffffffffffffffffffffffffffffffffffffffff1673ffffffffffffffffffffffffffffffffffffffff16815260200190815260200160002054905090565b600061192c426116a7565b905090565b6000341161193e57600080fd5b34600260003373ffffffffffffffffffffffffffffffffffffffff1673ffffffffffffffffffffffffffffffffffffffff1681526020019081526020016000205401600260003373ffffffffffffffffffffffffffffffffffffffff1673ffffffffffffffffffffffffffffffffffffffff168152602001908152602001600020819055503373ffffffffffffffffffffffffffffffffffffffff167fa448afda7ea1e3a7a10fcab0c29fe9a9dd85791503bf0171f281521551c7ec05600260003373ffffffffffffffffffffffffffffffffffffffff1673ffffffffffffffffffffffffffffffffffffffff16815260200190815260200160002054604051611a489190613522565b60405180910390a2565b6000611a5d42611750565b905090565b60006001805490509050611a74612a2b565b6040518061016001604052808381526020018e8e8080601f016020809104026020016040519081016040528093929190818152602001838380828437600081840152601f19601f8201169050808301925050505050505081526020018c8c8080601f016020809104026020016040519081016040528093929190818152602001838380828437600081840152601f19601f8201169050808301925050505050505081526020013373ffffffffffffffffffffffffffffffffffffffff1681526020018a73ffffffffffffffffffffffffffffffffffffffff1681526020018981526020018860ff1681526020018760ff1681526020018661ffff168152602001611bc186868080601f016020809104026020016040519081016040528093929190818152602001838380828437600081840152601f19601f820116905080830192505050505050506108b5565b815260200160011515815250905060018190806001815401808255809150509060018203906000526020600020906009020160009091929091909150600082015181600001556020820151816001019080519060200190611c23929190612abd565b506040820151816002019080519060200190611c40929190612abd565b5060608201518160030160006101000a81548173ffffffffffffffffffffffffffffffffffffffff021916908373ffffffffffffffffffffffffffffffffffffffff16021790555060808201518160040160006101000a81548173ffffffffffffffffffffffffffffffffffffffff021916908373ffffffffffffffffffffffffffffffffffffffff16021790555060a0820151816005015560c08201518160060160006101000a81548160ff021916908360ff16021790555060e08201518160060160016101000a81548160ff021916908360ff1602179055506101008201518160060160026101000a81548161ffff021916908361ffff16021790555061012082015181600701556101408201518160080160006101000a81548160ff02191690831515021790555050505080600360003373ffffffffffffffffffffffffffffffffffffffff1673ffffffffffffffffffffffffffffffffffffffff16815260200190815260200160002060008b73ffffffffffffffffffffffffffffffffffffffff1673ffffffffffffffffffffffffffffffffffffffff168152602001908152602001600020600082015181600001556020820151816001019080519060200190611e11929190612abd565b506040820151816002019080519060200190611e2e929190612abd565b5060608201518160030160006101000a81548173ffffffffffffffffffffffffffffffffffffffff021916908373ffffffffffffffffffffffffffffffffffffffff16021790555060808201518160040160006101000a81548173ffffffffffffffffffffffffffffffffffffffff021916908373ffffffffffffffffffffffffffffffffffffffff16021790555060a0820151816005015560c08201518160060160006101000a81548160ff021916908360ff16021790555060e08201518160060160016101000a81548160ff021916908360ff1602179055506101008201518160060160026101000a81548161ffff021916908361ffff16021790555061012082015181600701556101408201518160080160006101000a81548160ff0219169083151502179055509050506001600460003373ffffffffffffffffffffffffffffffffffffffff1673ffffffffffffffffffffffffffffffffffffffff1681526020019081526020016000205401600460003373ffffffffffffffffffffffffffffffffffffffff1673ffffffffffffffffffffffffffffffffffffffff16815260200190815260200160002081905550336005600084815260200190815260200160002060006101000a81548173ffffffffffffffffffffffffffffffffffffffff021916908373ffffffffffffffffffffffffffffffffffffffff160217905550806006600084815260200190815260200160002060008201518160000155602082015181600101908051906020019061206e929190612abd565b50604082015181600201908051906020019061208b929190612abd565b5060608201518160030160006101000a81548173ffffffffffffffffffffffffffffffffffffffff021916908373ffffffffffffffffffffffffffffffffffffffff16021790555060808201518160040160006101000a81548173ffffffffffffffffffffffffffffffffffffffff021916908373ffffffffffffffffffffffffffffffffffffffff16021790555060a0820151816005015560c08201518160060160006101000a81548160ff021916908360ff16021790555060e08201518160060160016101000a81548160ff021916908360ff1602179055506101008201518160060160026101000a81548161ffff021916908361ffff16021790555061012082015181600701556101408201518160080160006101000a81548160ff0219169083151502179055509050503373ffffffffffffffffffffffffffffffffffffffff167f0a79189c04c0f3c335646a007e34407f83a6fbcb6c24c426c9de6be912a6821c60405160405180910390a23373ffffffffffffffffffffffffffffffffffffffff167fa448afda7ea1e3a7a10fcab0c29fe9a9dd85791503bf0171f281521551c7ec05600260003373ffffffffffffffffffffffffffffffffffffffff1673ffffffffffffffffffffffffffffffffffffffff168152602001908152602001600020546040516122819190613522565b60405180910390a250505050505050505050505050565b6122a0610fdc565b6122a957600080fd5b6122b2816125bb565b50565b60008090505b60018054905081101561232e576000600182815481106122d757fe5b906000526020600020906009020190506122f0816126b3565b80156123115750600115158160080160009054906101000a900460ff161515145b156123205761231f81612742565b5b5080806001019150506122bb565b503373ffffffffffffffffffffffffffffffffffffffff167f0a79189c04c0f3c335646a007e34407f83a6fbcb6c24c426c9de6be912a6821c60405160405180910390a23373ffffffffffffffffffffffffffffffffffffffff167fa448afda7ea1e3a7a10fcab0c29fe9a9dd85791503bf0171f281521551c7ec05600260003373ffffffffffffffffffffffffffffffffffffffff1673ffffffffffffffffffffffffffffffffffffffff168152602001908152602001600020546040516123f79190613522565b60405180910390a2565b6000603c80838161240e57fe5b048161241657fe5b069050919050565b612426612b3d565b6000809050600080612437856116a7565b846000019061ffff16908161ffff16815250506124596107b261ffff166117db565b61246a856000015161ffff166117db565b039150816301e285000283019250816107b285600001510361ffff16036301e1338002830192506000600191505b600c8260ff16116124ee576124b182866000015161180e565b60ff16620151800290508584820111156124dc5781856020019060ff16908160ff16815250506124ee565b80840193508180600101925050612498565b600191505b6125058560200151866000015161180e565b60ff168260ff161161254a578584620151800111156125355781856040019060ff16908160ff168152505061254a565b620151808401935081806001019250506124f3565b61255386610a3a565b856060019060ff16908160ff168152505061256d86612401565b856080019060ff16908160ff168152505061258786610f84565b8560a0019060ff16908160ff16815250506125a186610c19565b8560c0019060ff16908160ff168152505050505050919050565b600073ffffffffffffffffffffffffffffffffffffffff168173ffffffffffffffffffffffffffffffffffffffff1614156125f557600080fd5b8073ffffffffffffffffffffffffffffffffffffffff166000809054906101000a900473ffffffffffffffffffffffffffffffffffffffff1673ffffffffffffffffffffffffffffffffffffffff167f8be0079c531659141344cd1fd0a4f28419497f9722a3daafe3b4186f6b6457e060405160405180910390a3806000806101000a81548173ffffffffffffffffffffffffffffffffffffffff021916908373ffffffffffffffffffffffffffffffffffffffff16021790555050565b60006126be426116a7565b61ffff168260060160029054906101000a900461ffff1661ffff1614801561270457506126ea42611750565b60ff168260060160019054906101000a900460ff1660ff16145b801561272e575061271442610c77565b60ff168260060160009054906101000a900460ff1660ff16145b1561273c576001905061273d565b5b919050565b8060050154600260008360030160009054906101000a900473ffffffffffffffffffffffffffffffffffffffff1673ffffffffffffffffffffffffffffffffffffffff1673ffffffffffffffffffffffffffffffffffffffff1681526020019081526020016000205410156127b657600080fd5b8060040160009054906101000a900473ffffffffffffffffffffffffffffffffffffffff1673ffffffffffffffffffffffffffffffffffffffff166108fc82600501549081150290604051600060405180830381858888f19350505050158015612824573d6000803e3d6000fd5b508060050154600260008360030160009054906101000a900473ffffffffffffffffffffffffffffffffffffffff1673ffffffffffffffffffffffffffffffffffffffff1673ffffffffffffffffffffffffffffffffffffffff1681526020019081526020016000205403600260008360030160009054906101000a900473ffffffffffffffffffffffffffffffffffffffff1673ffffffffffffffffffffffffffffffffffffffff1673ffffffffffffffffffffffffffffffffffffffff16815260200190815260200160002081905550600081600701544201905061290a81610c77565b8260060160006101000a81548160ff021916908360ff16021790555061292f81611750565b8260060160016101000a81548160ff021916908360ff160217905550612954816116a7565b8260060160026101000a81548161ffff021916908361ffff1602179055505050565b604051806101800160405280600c90602082028038833980820191505090505090565b604051806101600160405280600081526020016060815260200160608152602001600073ffffffffffffffffffffffffffffffffffffffff168152602001600073ffffffffffffffffffffffffffffffffffffffff16815260200160008152602001600060ff168152602001600060ff168152602001600061ffff168152602001600081526020016000151581525090565b604051806101600160405280600081526020016060815260200160608152602001600073ffffffffffffffffffffffffffffffffffffffff168152602001600073ffffffffffffffffffffffffffffffffffffffff16815260200160008152602001600060ff168152602001600060ff168152602001600061ffff168152602001600081526020016000151581525090565b828054600181600116156101000203166002900490600052602060002090601f016020900481019282601f10612afe57805160ff1916838001178555612b2c565b82800160010185558215612b2c579182015b82811115612b2b578251825591602001919060010190612b10565b5b509050612b399190612b90565b5090565b6040518060e00160405280600061ffff168152602001600060ff168152602001600060ff168152602001600060ff168152602001600060ff168152602001600060ff168152602001600060ff1681525090565b612bb291905b80821115612bae576000816000905550600101612b96565b5090565b90565b600081359050612bc4816137ae565b92915050565b600081359050612bd9816137c5565b92915050565b60008083601f840112612bf157600080fd5b8235905067ffffffffffffffff811115612c0a57600080fd5b602083019150836001820283011115612c2257600080fd5b9250929050565b600082601f830112612c3a57600080fd5b8135612c4d612c488261363e565b613611565b91508082526020830160208301858383011115612c6957600080fd5b612c7483828461375b565b50505092915050565b600081359050612c8c816137dc565b92915050565b600081359050612ca1816137f3565b92915050565b600081359050612cb68161380a565b92915050565b600060208284031215612cce57600080fd5b6000612cdc84828501612bb5565b91505092915050565b60008060008060008060008060008060006101008c8e031215612d0757600080fd5b60008c013567ffffffffffffffff811115612d2157600080fd5b612d2d8e828f01612bdf565b9b509b505060208c013567ffffffffffffffff811115612d4c57600080fd5b612d588e828f01612bdf565b99509950506040612d6b8e828f01612bca565b9750506060612d7c8e828f01612c92565b9650506080612d8d8e828f01612ca7565b95505060a0612d9e8e828f01612ca7565b94505060c0612daf8e828f01612c7d565b93505060e08c013567ffffffffffffffff811115612dcc57600080fd5b612dd88e828f01612bdf565b92509250509295989b509295989b9093969950565b600060208284031215612dff57600080fd5b600082013567ffffffffffffffff811115612e1957600080fd5b612e2584828501612c29565b91505092915050565b600060208284031215612e4057600080fd5b6000612e4e84828501612c7d565b91505092915050565b600080600060608486031215612e6c57600080fd5b6000612e7a86828701612c7d565b9350506020612e8b86828701612ca7565b9250506040612e9c86828701612ca7565b9150509250925092565b60008060008060808587031215612ebc57600080fd5b6000612eca87828801612c7d565b9450506020612edb87828801612ca7565b9350506040612eec87828801612ca7565b9250506060612efd87828801612ca7565b91505092959194509250565b600080600080600060a08688031215612f2157600080fd5b6000612f2f88828901612c7d565b9550506020612f4088828901612ca7565b9450506040612f5188828901612ca7565b9350506060612f6288828901612ca7565b9250506080612f7388828901612ca7565b9150509295509295909350565b60008060008060008060c08789031215612f9957600080fd5b6000612fa789828a01612c7d565b9650506020612fb889828a01612ca7565b9550506040612fc989828a01612ca7565b9450506060612fda89828a01612ca7565b9350506080612feb89828a01612ca7565b92505060a0612ffc89828a01612ca7565b9150509295509295509295565b60006020828403121561301b57600080fd5b600061302984828501612c92565b91505092915050565b6000806040838503121561304557600080fd5b600061305385828601612ca7565b925050602061306485828601612c7d565b9150509250929050565b600061307a83836132f4565b905092915050565b61308b816136f8565b82525050565b61309a816136f8565b82525050565b6130a9816136e6565b82525050565b6130b8816136e6565b82525050565b60006130c98261367a565b6130d381856136a8565b9350836020820285016130e58561366a565b8060005b858110156131215784840389528151613102858261306e565b945061310d8361369b565b925060208a019950506001810190506130e9565b50829750879550505050505092915050565b61313c8161370a565b82525050565b61314b8161370a565b82525050565b600061315c82613690565b61316681856136db565b935061317681856020860161376a565b80840191505092915050565b600061318d82613685565b61319781856136b9565b93506131a781856020860161376a565b6131b08161379d565b840191505092915050565b60006131c682613685565b6131d081856136ca565b93506131e081856020860161376a565b6131e98161379d565b840191505092915050565b60006132016007836136db565b91507f6d6f6e74686c79000000000000000000000000000000000000000000000000006000830152600782019050919050565b60006132416006836136db565b91507f796561726c7900000000000000000000000000000000000000000000000000006000830152600682019050919050565b60006132816006836136db565b91507f7765656b6c7900000000000000000000000000000000000000000000000000006000830152600682019050919050565b60006132c16005836136db565b91507f6461696c790000000000000000000000000000000000000000000000000000006000830152600582019050919050565b60006101608301600083015161330d6000860182613408565b50602083015184820360208601526133258282613182565b9150506040830151848203604086015261333f8282613182565b915050606083015161335460608601826130a0565b5060808301516133676080860182613082565b5060a083015161337a60a0860182613408565b5060c083015161338d60c0860182613426565b5060e08301516133a060e0860182613426565b506101008301516133b56101008601826133ea565b506101208301516133ca610120860182613408565b506101408301516133df610140860182613133565b508091505092915050565b6133f381613716565b82525050565b61340281613716565b82525050565b61341181613744565b82525050565b61342081613744565b82525050565b61342f8161374e565b82525050565b61343e8161374e565b82525050565b60006134508284613151565b915081905092915050565b6000613466826131f4565b9150819050919050565b600061347b82613234565b9150819050919050565b600061349082613274565b9150819050919050565b60006134a5826132b4565b9150819050919050565b60006020820190506134c460008301846130af565b92915050565b600060208201905081810360008301526134e481846130be565b905092915050565b60006020820190506135016000830184613142565b92915050565b600060208201905061351c60008301846133f9565b92915050565b60006020820190506135376000830184613417565b92915050565b600061016082019050613553600083018e613417565b8181036020830152613565818d6131bb565b90508181036040830152613579818c6131bb565b9050613588606083018b6130af565b613595608083018a613091565b6135a260a0830189613417565b6135af60c0830188613435565b6135bc60e0830187613435565b6135ca6101008301866133f9565b6135d8610120830185613417565b6135e6610140830184613142565b9c9b505050505050505050505050565b600060208201905061360b6000830184613435565b92915050565b6000604051905081810181811067ffffffffffffffff8211171561363457600080fd5b8060405250919050565b600067ffffffffffffffff82111561365557600080fd5b601f19601f8301169050602081019050919050565b6000819050602082019050919050565b600081519050919050565b600081519050919050565b600081519050919050565b6000602082019050919050565b600082825260208201905092915050565b600082825260208201905092915050565b600082825260208201905092915050565b600081905092915050565b60006136f182613724565b9050919050565b600061370382613724565b9050919050565b60008115159050919050565b600061ffff82169050919050565b600073ffffffffffffffffffffffffffffffffffffffff82169050919050565b6000819050919050565b600060ff82169050919050565b82818337600083830152505050565b60005b8381101561378857808201518184015260208101905061376d565b83811115613797576000848401525b50505050565b6000601f19601f8301169050919050565b6137b7816136e6565b81146137c257600080fd5b50565b6137ce816136f8565b81146137d957600080fd5b50565b6137e581613716565b81146137f057600080fd5b50565b6137fc81613744565b811461380757600080fd5b50565b6138138161374e565b811461381e57600080fd5b5056fea365627a7a72315820fd2c9d00e5c3d663e07c31d71b7a3dd785c1fe3d0d4c968090893f8b5668af286c6578706572696d656e74616cf564736f6c63430005100040",
  "source": "pragma solidity ^0.5.0;\npragma experimental ABIEncoderV2;\n\nimport \"./ownable.sol\";\nimport \"./datetime.sol\";\n\ncontract OnePay is Ownable, DateTime {\n\n    event BalanceChanged(address indexed _owner, uint256 _newBalance);\n    event BeneficionariesChanged(address indexed _owner);\n\n    struct Payment {\n        uint id;\n        string name;\n        string category;\n        address from;\n        address payable to;\n        uint amount;\n        uint8 nextDay;\n        uint8 nextMonth;\n        uint16 nextYear;\n        uint interval;\n        bool active;\n    }\n\n    Payment[] public payments;\n\n    mapping (address => uint256) ownerToBalance; \n    mapping (address =>mapping(address=> Payment)) ownerToPayment;\n    mapping (address => uint) ownerPaymentCount;\n    mapping (uint => address) paymentIdToOwner;\n    mapping (uint => Payment) paymentIdToPayment;\n\n    constructor() public {\n        ownerToBalance[msg.sender] = 0;\n    }\n\n    function getSmartContractBalance() external view returns(uint256){\n        return address(this).balance;\n    }\n\n    function getUserBalance() external view returns(uint256){\n        return ownerToBalance[msg.sender];\n    }\n\n    function getAddress() external view returns(address){\n        return address(this);\n    }\n\n    function fundAccount() external payable {\n        require(msg.value > 0);\n        ownerToBalance[msg.sender] = ownerToBalance[msg.sender] + msg.value;\n        emit BalanceChanged(msg.sender, ownerToBalance[msg.sender]);\n    }\n\n    function withdrawFromAccount(uint256 _amount) external{\n        require(_amount <= ownerToBalance[msg.sender]);\n        msg.sender.transfer(_amount);\n        ownerToBalance[msg.sender] = ownerToBalance[msg.sender] - _amount;\n        emit BalanceChanged(msg.sender, ownerToBalance[msg.sender]);\n    }\n\n    function getInterval(string memory _interval) public pure returns (uint){\n        if(keccak256(abi.encodePacked(_interval)) == keccak256(abi.encodePacked(\"daily\"))){\n            return 1 days;\n        }\n        if(keccak256(abi.encodePacked(_interval)) == keccak256(abi.encodePacked(\"weekly\"))){\n            return 7 days;\n        }\n        if(keccak256(abi.encodePacked(_interval)) == keccak256(abi.encodePacked(\"monthly\"))){\n            return 30 days;\n        }\n        if(keccak256(abi.encodePacked(_interval)) == keccak256(abi.encodePacked(\"yearly\"))){\n            return 365 days;\n        }\n    }\n\n    function addNewBeneficiary(string calldata _name, string calldata _category, address payable _to, uint _amount, uint8 _day, uint8 _month, uint16 _year, string calldata _interval) external {\n        uint id = payments.length;\n        Payment memory newPayment = Payment(\n            id,\n            _name,\n            _category,\n            msg.sender,\n            _to,\n            _amount,\n            _day,\n            _month,\n            _year, \n            getInterval(_interval),\n            true\n        );\n        payments.push(newPayment);\n        ownerToPayment[msg.sender][_to] =  newPayment;\n        ownerPaymentCount[msg.sender] = ownerPaymentCount[msg.sender]+1;\n        paymentIdToOwner[id]=msg.sender;\n        paymentIdToPayment[id]= newPayment;\n        emit BeneficionariesChanged(msg.sender);\n        emit BalanceChanged(msg.sender, ownerToBalance[msg.sender]);\n    }\n\n    function getCurrentDay() public view returns(uint8){\n        return getDay(now);\n    }\n    function getCurrentMonth() public view returns(uint8){\n        return getMonth(now);\n    }\n    function getCurrentYear() public view returns(uint16){\n        return getYear(now);\n    }\n\n    function paymentToday(Payment storage _payment) internal view returns(bool){\n        if( _payment.nextYear == getYear(now) && _payment.nextMonth == getMonth(now) && _payment.nextDay == getDay(now)){\n            return true;\n        }\n    }\n\n    function sendPayment(Payment storage _payment)internal{\n        require(ownerToBalance[_payment.from] >= _payment.amount);\n        _payment.to.transfer(_payment.amount);\n        ownerToBalance[_payment.from] = ownerToBalance[_payment.from] - _payment.amount;\n        uint nextTimeStamp = (now )+ _payment.interval;\n        _payment.nextDay = getDay(nextTimeStamp);\n        _payment.nextMonth = getMonth(nextTimeStamp);\n        _payment.nextYear = getYear(nextTimeStamp);\n    }\n\n    function dispersePayments() public{\n        for(uint i = 0; i < payments.length; i++){\n            Payment storage currentPayment = payments[i];\n            if(paymentToday(currentPayment) && currentPayment.active==true){\n                sendPayment(currentPayment);\n            }\n        }\n        emit BeneficionariesChanged(msg.sender);\n        emit BalanceChanged(msg.sender, ownerToBalance[msg.sender]);\n    }\n\n    function getBeneficiaries() public view returns (Payment[] memory){\n        Payment[] memory result = new Payment[](ownerPaymentCount[msg.sender]);\n        uint counter = 0;\n        for(uint i = 0; i < payments.length; i++){\n            if(payments[i].from == msg.sender){\n                result[counter] = payments[i];\n                counter++;\n            }\n        }\n        return result;\n    }\n\n    function toggleBeneficiary(uint _id) public {\n        Payment storage currentPayment = payments[_id];\n        currentPayment.active = !currentPayment.active;\n        emit BeneficionariesChanged(msg.sender);\n    }\n  \n\n\n}",
  "sourcePath": "/Users/eddyreynoso/Desktop/defi/src/contracts/OnePay.sol",
  "compiler": {
    "name": "solc",
    "version": "0.5.16+commit.9c3226ce.Emscripten.clang"
  },
  "schemaVersion": "3.2.3",
  "updatedAt": "2021-05-18T15:33:50.402Z",
  "networkType": "ethereum",
  "devdoc": {
    "methods": {
      "isOwner()": {
        "return": "true if `msg.sender` is the owner of the contract."
      },
      "owner()": {
        "return": "the address of the owner."
      },
      "renounceOwnership()": {
        "details": "Allows the current owner to relinquish control of the contract."
      },
      "transferOwnership(address)": {
        "details": "Allows the current owner to transfer control of the contract to a newOwner.",
        "params": {
          "newOwner": "The address to transfer ownership to."
        }
      }
    }
  },
  "userdoc": {
    "methods": {
      "renounceOwnership()": {
        "notice": "Renouncing to ownership will leave the contract without an owner. It will not be possible to call the functions with the `onlyOwner` modifier anymore."
      }
    }
  }
}