{
  "contractName": "OnePay",
  "abi": [
    {
      "inputs": [],
      "payable": false,
      "stateMutability": "nonpayable",
      "type": "constructor"
    },
    {
      "anonymous": false,
      "inputs": [
        {
          "indexed": true,
          "internalType": "address",
          "name": "_owner",
          "type": "address"
        },
        {
          "indexed": false,
          "internalType": "uint256",
          "name": "_newBalance",
          "type": "uint256"
        }
      ],
      "name": "BalanceChanged",
      "type": "event"
    },
    {
      "anonymous": false,
      "inputs": [
        {
          "indexed": true,
          "internalType": "address",
          "name": "_owner",
          "type": "address"
        }
      ],
      "name": "BeneficionariesChanged",
      "type": "event"
    },
    {
      "anonymous": false,
      "inputs": [
        {
          "indexed": true,
          "internalType": "address",
          "name": "previousOwner",
          "type": "address"
        },
        {
          "indexed": true,
          "internalType": "address",
          "name": "newOwner",
          "type": "address"
        }
      ],
      "name": "OwnershipTransferred",
      "type": "event"
    },
    {
      "constant": true,
      "inputs": [
        {
          "internalType": "uint256",
          "name": "timestamp",
          "type": "uint256"
        }
      ],
      "name": "getDay",
      "outputs": [
        {
          "internalType": "uint8",
          "name": "",
          "type": "uint8"
        }
      ],
      "payable": false,
      "stateMutability": "pure",
      "type": "function"
    },
    {
      "constant": true,
      "inputs": [
        {
          "internalType": "uint8",
          "name": "month",
          "type": "uint8"
        },
        {
          "internalType": "uint16",
          "name": "year",
          "type": "uint16"
        }
      ],
      "name": "getDaysInMonth",
      "outputs": [
        {
          "internalType": "uint8",
          "name": "",
          "type": "uint8"
        }
      ],
      "payable": false,
      "stateMutability": "pure",
      "type": "function"
    },
    {
      "constant": true,
      "inputs": [
        {
          "internalType": "uint256",
          "name": "timestamp",
          "type": "uint256"
        }
      ],
      "name": "getHour",
      "outputs": [
        {
          "internalType": "uint8",
          "name": "",
          "type": "uint8"
        }
      ],
      "payable": false,
      "stateMutability": "pure",
      "type": "function"
    },
    {
      "constant": true,
      "inputs": [
        {
          "internalType": "uint256",
          "name": "timestamp",
          "type": "uint256"
        }
      ],
      "name": "getMinute",
      "outputs": [
        {
          "internalType": "uint8",
          "name": "",
          "type": "uint8"
        }
      ],
      "payable": false,
      "stateMutability": "pure",
      "type": "function"
    },
    {
      "constant": true,
      "inputs": [
        {
          "internalType": "uint256",
          "name": "timestamp",
          "type": "uint256"
        }
      ],
      "name": "getMonth",
      "outputs": [
        {
          "internalType": "uint8",
          "name": "",
          "type": "uint8"
        }
      ],
      "payable": false,
      "stateMutability": "pure",
      "type": "function"
    },
    {
      "constant": true,
      "inputs": [
        {
          "internalType": "uint256",
          "name": "timestamp",
          "type": "uint256"
        }
      ],
      "name": "getSecond",
      "outputs": [
        {
          "internalType": "uint8",
          "name": "",
          "type": "uint8"
        }
      ],
      "payable": false,
      "stateMutability": "pure",
      "type": "function"
    },
    {
      "constant": true,
      "inputs": [
        {
          "internalType": "uint256",
          "name": "timestamp",
          "type": "uint256"
        }
      ],
      "name": "getWeekday",
      "outputs": [
        {
          "internalType": "uint8",
          "name": "",
          "type": "uint8"
        }
      ],
      "payable": false,
      "stateMutability": "pure",
      "type": "function"
    },
    {
      "constant": true,
      "inputs": [
        {
          "internalType": "uint256",
          "name": "timestamp",
          "type": "uint256"
        }
      ],
      "name": "getYear",
      "outputs": [
        {
          "internalType": "uint16",
          "name": "",
          "type": "uint16"
        }
      ],
      "payable": false,
      "stateMutability": "pure",
      "type": "function"
    },
    {
      "constant": true,
      "inputs": [
        {
          "internalType": "uint16",
          "name": "year",
          "type": "uint16"
        }
      ],
      "name": "isLeapYear",
      "outputs": [
        {
          "internalType": "bool",
          "name": "",
          "type": "bool"
        }
      ],
      "payable": false,
      "stateMutability": "pure",
      "type": "function"
    },
    {
      "constant": true,
      "inputs": [],
      "name": "isOwner",
      "outputs": [
        {
          "internalType": "bool",
          "name": "",
          "type": "bool"
        }
      ],
      "payable": false,
      "stateMutability": "view",
      "type": "function"
    },
    {
      "constant": true,
      "inputs": [
        {
          "internalType": "uint256",
          "name": "year",
          "type": "uint256"
        }
      ],
      "name": "leapYearsBefore",
      "outputs": [
        {
          "internalType": "uint256",
          "name": "",
          "type": "uint256"
        }
      ],
      "payable": false,
      "stateMutability": "pure",
      "type": "function"
    },
    {
      "constant": true,
      "inputs": [],
      "name": "owner",
      "outputs": [
        {
          "internalType": "address",
          "name": "",
          "type": "address"
        }
      ],
      "payable": false,
      "stateMutability": "view",
      "type": "function"
    },
    {
      "constant": true,
      "inputs": [
        {
          "internalType": "uint256",
          "name": "",
          "type": "uint256"
        }
      ],
      "name": "payments",
      "outputs": [
        {
          "internalType": "uint256",
          "name": "id",
          "type": "uint256"
        },
        {
          "internalType": "string",
          "name": "name",
          "type": "string"
        },
        {
          "internalType": "address",
          "name": "from",
          "type": "address"
        },
        {
          "internalType": "address payable",
          "name": "to",
          "type": "address"
        },
        {
          "internalType": "uint256",
          "name": "amount",
          "type": "uint256"
        },
        {
          "internalType": "uint8",
          "name": "nextDay",
          "type": "uint8"
        },
        {
          "internalType": "uint8",
          "name": "nextMonth",
          "type": "uint8"
        },
        {
          "internalType": "uint16",
          "name": "nextYear",
          "type": "uint16"
        },
        {
          "internalType": "uint256",
          "name": "interval",
          "type": "uint256"
        },
        {
          "internalType": "bool",
          "name": "active",
          "type": "bool"
        }
      ],
      "payable": false,
      "stateMutability": "view",
      "type": "function"
    },
    {
      "constant": false,
      "inputs": [],
      "name": "renounceOwnership",
      "outputs": [],
      "payable": false,
      "stateMutability": "nonpayable",
      "type": "function"
    },
    {
      "constant": true,
      "inputs": [
        {
          "internalType": "uint16",
          "name": "year",
          "type": "uint16"
        },
        {
          "internalType": "uint8",
          "name": "month",
          "type": "uint8"
        },
        {
          "internalType": "uint8",
          "name": "day",
          "type": "uint8"
        },
        {
          "internalType": "uint8",
          "name": "hour",
          "type": "uint8"
        },
        {
          "internalType": "uint8",
          "name": "minute",
          "type": "uint8"
        }
      ],
      "name": "toTimestamp",
      "outputs": [
        {
          "internalType": "uint256",
          "name": "timestamp",
          "type": "uint256"
        }
      ],
      "payable": false,
      "stateMutability": "pure",
      "type": "function"
    },
    {
      "constant": true,
      "inputs": [
        {
          "internalType": "uint16",
          "name": "year",
          "type": "uint16"
        },
        {
          "internalType": "uint8",
          "name": "month",
          "type": "uint8"
        },
        {
          "internalType": "uint8",
          "name": "day",
          "type": "uint8"
        },
        {
          "internalType": "uint8",
          "name": "hour",
          "type": "uint8"
        }
      ],
      "name": "toTimestamp",
      "outputs": [
        {
          "internalType": "uint256",
          "name": "timestamp",
          "type": "uint256"
        }
      ],
      "payable": false,
      "stateMutability": "pure",
      "type": "function"
    },
    {
      "constant": true,
      "inputs": [
        {
          "internalType": "uint16",
          "name": "year",
          "type": "uint16"
        },
        {
          "internalType": "uint8",
          "name": "month",
          "type": "uint8"
        },
        {
          "internalType": "uint8",
          "name": "day",
          "type": "uint8"
        }
      ],
      "name": "toTimestamp",
      "outputs": [
        {
          "internalType": "uint256",
          "name": "timestamp",
          "type": "uint256"
        }
      ],
      "payable": false,
      "stateMutability": "pure",
      "type": "function"
    },
    {
      "constant": true,
      "inputs": [
        {
          "internalType": "uint16",
          "name": "year",
          "type": "uint16"
        },
        {
          "internalType": "uint8",
          "name": "month",
          "type": "uint8"
        },
        {
          "internalType": "uint8",
          "name": "day",
          "type": "uint8"
        },
        {
          "internalType": "uint8",
          "name": "hour",
          "type": "uint8"
        },
        {
          "internalType": "uint8",
          "name": "minute",
          "type": "uint8"
        },
        {
          "internalType": "uint8",
          "name": "second",
          "type": "uint8"
        }
      ],
      "name": "toTimestamp",
      "outputs": [
        {
          "internalType": "uint256",
          "name": "timestamp",
          "type": "uint256"
        }
      ],
      "payable": false,
      "stateMutability": "pure",
      "type": "function"
    },
    {
      "constant": false,
      "inputs": [
        {
          "internalType": "address",
          "name": "newOwner",
          "type": "address"
        }
      ],
      "name": "transferOwnership",
      "outputs": [],
      "payable": false,
      "stateMutability": "nonpayable",
      "type": "function"
    },
    {
      "constant": true,
      "inputs": [],
      "name": "getSmartContractBalance",
      "outputs": [
        {
          "internalType": "uint256",
          "name": "",
          "type": "uint256"
        }
      ],
      "payable": false,
      "stateMutability": "view",
      "type": "function"
    },
    {
      "constant": true,
      "inputs": [],
      "name": "getUserBalance",
      "outputs": [
        {
          "internalType": "uint256",
          "name": "",
          "type": "uint256"
        }
      ],
      "payable": false,
      "stateMutability": "view",
      "type": "function"
    },
    {
      "constant": true,
      "inputs": [],
      "name": "getAddress",
      "outputs": [
        {
          "internalType": "address",
          "name": "",
          "type": "address"
        }
      ],
      "payable": false,
      "stateMutability": "view",
      "type": "function"
    },
    {
      "constant": false,
      "inputs": [],
      "name": "fundAccount",
      "outputs": [],
      "payable": true,
      "stateMutability": "payable",
      "type": "function"
    },
    {
      "constant": false,
      "inputs": [
        {
          "internalType": "uint256",
          "name": "_amount",
          "type": "uint256"
        }
      ],
      "name": "withdrawFromAccount",
      "outputs": [],
      "payable": false,
      "stateMutability": "nonpayable",
      "type": "function"
    },
    {
      "constant": true,
      "inputs": [
        {
          "internalType": "string",
          "name": "_interval",
          "type": "string"
        }
      ],
      "name": "getInterval",
      "outputs": [
        {
          "internalType": "uint256",
          "name": "",
          "type": "uint256"
        }
      ],
      "payable": false,
      "stateMutability": "pure",
      "type": "function"
    },
    {
      "constant": false,
      "inputs": [
        {
          "internalType": "string",
          "name": "_name",
          "type": "string"
        },
        {
          "internalType": "address payable",
          "name": "_to",
          "type": "address"
        },
        {
          "internalType": "uint256",
          "name": "_amount",
          "type": "uint256"
        },
        {
          "internalType": "uint8",
          "name": "_day",
          "type": "uint8"
        },
        {
          "internalType": "uint8",
          "name": "_month",
          "type": "uint8"
        },
        {
          "internalType": "uint16",
          "name": "_year",
          "type": "uint16"
        },
        {
          "internalType": "string",
          "name": "_interval",
          "type": "string"
        }
      ],
      "name": "addNewBeneficiary",
      "outputs": [],
      "payable": false,
      "stateMutability": "nonpayable",
      "type": "function"
    },
    {
      "constant": true,
      "inputs": [],
      "name": "getCurrentDay",
      "outputs": [
        {
          "internalType": "uint8",
          "name": "",
          "type": "uint8"
        }
      ],
      "payable": false,
      "stateMutability": "view",
      "type": "function"
    },
    {
      "constant": true,
      "inputs": [],
      "name": "getCurrentMonth",
      "outputs": [
        {
          "internalType": "uint8",
          "name": "",
          "type": "uint8"
        }
      ],
      "payable": false,
      "stateMutability": "view",
      "type": "function"
    },
    {
      "constant": true,
      "inputs": [],
      "name": "getCurrentYear",
      "outputs": [
        {
          "internalType": "uint16",
          "name": "",
          "type": "uint16"
        }
      ],
      "payable": false,
      "stateMutability": "view",
      "type": "function"
    },
    {
      "constant": false,
      "inputs": [],
      "name": "dispersePayments",
      "outputs": [],
      "payable": false,
      "stateMutability": "nonpayable",
      "type": "function"
    },
    {
      "constant": true,
      "inputs": [],
      "name": "getBeneficiaries",
      "outputs": [
        {
          "components": [
            {
              "internalType": "uint256",
              "name": "id",
              "type": "uint256"
            },
            {
              "internalType": "string",
              "name": "name",
              "type": "string"
            },
            {
              "internalType": "address",
              "name": "from",
              "type": "address"
            },
            {
              "internalType": "address payable",
              "name": "to",
              "type": "address"
            },
            {
              "internalType": "uint256",
              "name": "amount",
              "type": "uint256"
            },
            {
              "internalType": "uint8",
              "name": "nextDay",
              "type": "uint8"
            },
            {
              "internalType": "uint8",
              "name": "nextMonth",
              "type": "uint8"
            },
            {
              "internalType": "uint16",
              "name": "nextYear",
              "type": "uint16"
            },
            {
              "internalType": "uint256",
              "name": "interval",
              "type": "uint256"
            },
            {
              "internalType": "bool",
              "name": "active",
              "type": "bool"
            }
          ],
          "internalType": "struct OnePay.Payment[]",
          "name": "",
          "type": "tuple[]"
        }
      ],
      "payable": false,
      "stateMutability": "view",
      "type": "function"
    },
    {
      "constant": false,
      "inputs": [
        {
          "internalType": "uint256",
          "name": "_id",
          "type": "uint256"
        }
      ],
      "name": "toggleBeneficiary",
      "outputs": [],
      "payable": false,
      "stateMutability": "nonpayable",
      "type": "function"
    }
  ],
  "bytecode": "0x608060405234801561001057600080fd5b50336000806101000a81548173ffffffffffffffffffffffffffffffffffffffff021916908373ffffffffffffffffffffffffffffffffffffffff1602179055506000809054906101000a900473ffffffffffffffffffffffffffffffffffffffff1673ffffffffffffffffffffffffffffffffffffffff16600073ffffffffffffffffffffffffffffffffffffffff167f8be0079c531659141344cd1fd0a4f28419497f9722a3daafe3b4186f6b6457e060405160405180910390a36000600260003373ffffffffffffffffffffffffffffffffffffffff1673ffffffffffffffffffffffffffffffffffffffff168152602001908152602001600020819055506135c8806101216000396000f3fe6080604052600436106101e35760003560e01c80638f32d59b11610102578063b238ad0e11610095578063ddd1b67e11610064578063ddd1b67e14610778578063f2fde38b146107a3578063f9b57319146107cc578063fa93f883146107e3576101e3565b8063b238ad0e146106db578063b7013dc114610718578063ce41607a14610743578063d9a8748c1461076e576101e3565b80639ad135f2116100d15780639ad135f2146105fb578063a324ad2414610624578063a6f0e57714610661578063b19999371461069e576101e3565b80638f32d59b1461052b5780639054bdec14610556578063913b722c1461059357806392d66313146105be576101e3565b806362ba96871161017a57806387d817891161014957806387d81789146104405780638aa001fc146104865780638c8d98a0146104c35780638da5cb5b14610500576101e3565b806362ba96871461037257806365c72840146103af578063715018a6146103ec5780637f79183314610403576101e3565b80633e6968b6116101b65780633e6968b6146102b65780634792b098146102e15780634ac1ad781461030a5780635145cbc014610347576101e3565b80631aab3a49146101e85780632c7067dc1461021157806338cc48311461024e5780633e239e1a14610279575b600080fd5b3480156101f457600080fd5b5061020f600480360361020a9190810190612d9f565b610820565b005b34801561021d57600080fd5b5061023860048036036102339190810190612b83565b6108b4565b604051610245919061329c565b60405180910390f35b34801561025a57600080fd5b50610263610a31565b6040516102709190613229565b60405180910390f35b34801561028557600080fd5b506102a0600480360361029b9190810190612d9f565b610a39565b6040516102ad919061335a565b60405180910390f35b3480156102c257600080fd5b506102cb610a60565b6040516102d8919061335a565b60405180910390f35b3480156102ed57600080fd5b5061030860048036036103039190810190612d9f565b610a70565b005b34801561031657600080fd5b50610331600480360361032c9190810190612d9f565b610c18565b60405161033e919061335a565b60405180910390f35b34801561035357600080fd5b5061035c610c3b565b604051610369919061329c565b60405180910390f35b34801561037e57600080fd5b5061039960048036036103949190810190612c9f565b610c5a565b6040516103a6919061329c565b60405180910390f35b3480156103bb57600080fd5b506103d660048036036103d19190810190612d9f565b610c76565b6040516103e3919061335a565b60405180910390f35b3480156103f857600080fd5b50610401610c8c565b005b34801561040f57600080fd5b5061042a60048036036104259190810190612c3c565b610d5c565b604051610437919061329c565b60405180910390f35b34801561044c57600080fd5b5061046760048036036104629190810190612d9f565b610d77565b60405161047d9a999897969594939291906132b7565b60405180910390f35b34801561049257600080fd5b506104ad60048036036104a89190810190612d9f565b610ee5565b6040516104ba919061335a565b60405180910390f35b3480156104cf57600080fd5b506104ea60048036036104e59190810190612bed565b610ef9565b6040516104f7919061329c565b60405180910390f35b34801561050c57600080fd5b50610515610f14565b6040516105229190613229565b60405180910390f35b34801561053757600080fd5b50610540610f3d565b60405161054d9190613266565b60405180910390f35b34801561056257600080fd5b5061057d60048036036105789190810190612d16565b610f94565b60405161058a919061329c565b60405180910390f35b34801561059f57600080fd5b506105a861121f565b6040516105b59190613244565b60405180910390f35b3480156105ca57600080fd5b506105e560048036036105e09190810190612d9f565b611566565b6040516105f29190613281565b60405180910390f35b34801561060757600080fd5b50610622600480360361061d9190810190612aad565b61160f565b005b34801561063057600080fd5b5061064b60048036036106469190810190612d9f565b611d9f565b604051610658919061335a565b60405180910390f35b34801561066d57600080fd5b5061068860048036036106839190810190612bc4565b611db5565b6040516106959190613266565b60405180910390f35b3480156106aa57600080fd5b506106c560048036036106c09190810190612d9f565b611e2a565b6040516106d2919061329c565b60405180910390f35b3480156106e757600080fd5b5061070260048036036106fd9190810190612dc8565b611e5d565b60405161070f919061335a565b60405180910390f35b34801561072457600080fd5b5061072d611f29565b60405161073a919061329c565b60405180910390f35b34801561074f57600080fd5b50610758611f70565b6040516107659190613281565b60405180910390f35b610776611f80565b005b34801561078457600080fd5b5061078d6120a1565b60405161079a919061335a565b60405180910390f35b3480156107af57600080fd5b506107ca60048036036107c59190810190612a84565b6120b1565b005b3480156107d857600080fd5b506107e16120ce565b005b3480156107ef57600080fd5b5061080a60048036036108059190810190612d9f565b61214a565b604051610817919061335a565b60405180910390f35b60006001828154811061082f57fe5b906000526020600020906008020190508060070160009054906101000a900460ff16158160070160006101000a81548160ff0219169083151502179055503373ffffffffffffffffffffffffffffffffffffffff167f0a79189c04c0f3c335646a007e34407f83a6fbcb6c24c426c9de6be912a6821c60405160405180910390a25050565b60006040516020016108c590613214565b60405160208183030381529060405280519060200120826040516020016108ec91906131be565b60405160208183030381529060405280519060200120141561091357620151809050610a2c565b604051602001610922906131ff565b604051602081830303815290604052805190602001208260405160200161094991906131be565b6040516020818303038152906040528051906020012014156109705762093a809050610a2c565b60405160200161097f906131d5565b60405160208183030381529060405280519060200120826040516020016109a691906131be565b6040516020818303038152906040528051906020012014156109cd5762278d009050610a2c565b6040516020016109dc906131ea565b6040516020818303038152906040528051906020012082604051602001610a0391906131be565b604051602081830303815290604052805190602001201415610a2b576301e133809050610a2c565b5b919050565b600030905090565b60006018603c808481610a4857fe5b0481610a5057fe5b0481610a5857fe5b069050919050565b6000610a6b42610c76565b905090565b600260003373ffffffffffffffffffffffffffffffffffffffff1673ffffffffffffffffffffffffffffffffffffffff16815260200190815260200160002054811115610abc57600080fd5b3373ffffffffffffffffffffffffffffffffffffffff166108fc829081150290604051600060405180830381858888f19350505050158015610b02573d6000803e3d6000fd5b5080600260003373ffffffffffffffffffffffffffffffffffffffff1673ffffffffffffffffffffffffffffffffffffffff1681526020019081526020016000205403600260003373ffffffffffffffffffffffffffffffffffffffff1673ffffffffffffffffffffffffffffffffffffffff168152602001908152602001600020819055503373ffffffffffffffffffffffffffffffffffffffff167fa448afda7ea1e3a7a10fcab0c29fe9a9dd85791503bf0171f281521551c7ec05600260003373ffffffffffffffffffffffffffffffffffffffff1673ffffffffffffffffffffffffffffffffffffffff16815260200190815260200160002054604051610c0d919061329c565b60405180910390a250565b600060076004620151808481610c2a57fe5b040181610c3357fe5b069050919050565b60003073ffffffffffffffffffffffffffffffffffffffff1631905090565b6000610c6b86868686866000610f94565b905095945050505050565b6000610c8182612167565b604001519050919050565b610c94610f3d565b610c9d57600080fd5b600073ffffffffffffffffffffffffffffffffffffffff166000809054906101000a900473ffffffffffffffffffffffffffffffffffffffff1673ffffffffffffffffffffffffffffffffffffffff167f8be0079c531659141344cd1fd0a4f28419497f9722a3daafe3b4186f6b6457e060405160405180910390a360008060006101000a81548173ffffffffffffffffffffffffffffffffffffffff021916908373ffffffffffffffffffffffffffffffffffffffff160217905550565b6000610d6d85858585600080610f94565b9050949350505050565b60018181548110610d8457fe5b9060005260206000209060080201600091509050806000015490806001018054600181600116156101000203166002900480601f016020809104026020016040519081016040528092919081815260200182805460018160011615610100020316600290048015610e365780601f10610e0b57610100808354040283529160200191610e36565b820191906000526020600020905b815481529060010190602001808311610e1957829003601f168201915b5050505050908060020160009054906101000a900473ffffffffffffffffffffffffffffffffffffffff16908060030160009054906101000a900473ffffffffffffffffffffffffffffffffffffffff16908060040154908060050160009054906101000a900460ff16908060050160019054906101000a900460ff16908060050160029054906101000a900461ffff16908060060154908060070160009054906101000a900460ff1690508a565b6000603c8281610ef157fe5b069050919050565b6000610f0b8484846000806000610f94565b90509392505050565b60008060009054906101000a900473ffffffffffffffffffffffffffffffffffffffff16905090565b60008060009054906101000a900473ffffffffffffffffffffffffffffffffffffffff1673ffffffffffffffffffffffffffffffffffffffff163373ffffffffffffffffffffffffffffffffffffffff1614905090565b6000806107b290505b8761ffff168161ffff161015610fe057610fb681611db5565b15610fc9576301e2850082019150610fd3565b6301e13380820191505b8080600101915050610f9d565b610fe861274c565b601f816000600c8110610ff757fe5b602002019060ff16908160ff168152505061101189611db5565b1561103b57601d816001600c811061102557fe5b602002019060ff16908160ff168152505061105c565b601c816001600c811061104a57fe5b602002019060ff16908160ff16815250505b601f816002600c811061106b57fe5b602002019060ff16908160ff1681525050601e816003600c811061108b57fe5b602002019060ff16908160ff1681525050601f816004600c81106110ab57fe5b602002019060ff16908160ff1681525050601e816005600c81106110cb57fe5b602002019060ff16908160ff1681525050601f816006600c81106110eb57fe5b602002019060ff16908160ff1681525050601f816007600c811061110b57fe5b602002019060ff16908160ff1681525050601e816008600c811061112b57fe5b602002019060ff16908160ff1681525050601f816009600c811061114b57fe5b602002019060ff16908160ff1681525050601e81600a600c811061116b57fe5b602002019060ff16908160ff1681525050601f81600b600c811061118b57fe5b602002019060ff16908160ff1681525050600191505b8760ff168261ffff1610156111e157806001830361ffff16600c81106111c357fe5b602002015160ff1662015180028301925081806001019250506111a1565b6001870360ff166201518002830192508560ff16610e1002830192508460ff16603c02830192508360ff168301925082925050509695505050505050565b606080600460003373ffffffffffffffffffffffffffffffffffffffff1673ffffffffffffffffffffffffffffffffffffffff1681526020019081526020016000205460405190808252806020026020018201604052801561129b57816020015b61128861276f565b8152602001906001900390816112805790505b509050600080905060008090505b60018054905081101561155d573373ffffffffffffffffffffffffffffffffffffffff16600182815481106112da57fe5b906000526020600020906008020160020160009054906101000a900473ffffffffffffffffffffffffffffffffffffffff1673ffffffffffffffffffffffffffffffffffffffff161415611550576001818154811061133557fe5b90600052602060002090600802016040518061014001604052908160008201548152602001600182018054600181600116156101000203166002900480601f0160208091040260200160405190810160405280929190818152602001828054600181600116156101000203166002900480156113f25780601f106113c7576101008083540402835291602001916113f2565b820191906000526020600020905b8154815290600101906020018083116113d557829003601f168201915b505050505081526020016002820160009054906101000a900473ffffffffffffffffffffffffffffffffffffffff1673ffffffffffffffffffffffffffffffffffffffff1673ffffffffffffffffffffffffffffffffffffffff1681526020016003820160009054906101000a900473ffffffffffffffffffffffffffffffffffffffff1673ffffffffffffffffffffffffffffffffffffffff1673ffffffffffffffffffffffffffffffffffffffff168152602001600482015481526020016005820160009054906101000a900460ff1660ff1660ff1681526020016005820160019054906101000a900460ff1660ff1660ff1681526020016005820160029054906101000a900461ffff1661ffff1661ffff168152602001600682015481526020016007820160009054906101000a900460ff16151515158152505083838151811061153c57fe5b602002602001018190525081806001019250505b80806001019150506112a9565b50819250505090565b600080600090506000806301e13380858161157d57fe5b046107b261ffff160191506115976107b261ffff16611e2a565b6115a48361ffff16611e2a565b039050806301e285000283019250806107b2830361ffff16036301e1338002830192505b84831115611604576115dc60018303611db5565b156115ef576301e28500830392506115f9565b6301e13380830392505b6001820391506115c8565b819350505050919050565b600060018054905090506116216127fa565b6040518061014001604052808381526020018c8c8080601f016020809104026020016040519081016040528093929190818152602001838380828437600081840152601f19601f8201169050808301925050505050505081526020013373ffffffffffffffffffffffffffffffffffffffff1681526020018a73ffffffffffffffffffffffffffffffffffffffff1681526020018981526020018860ff1681526020018760ff1681526020018661ffff16815260200161172486868080601f016020809104026020016040519081016040528093929190818152602001838380828437600081840152601f19601f820116905080830192505050505050506108b4565b815260200160011515815250905060018190806001815401808255809150509060018203906000526020600020906008020160009091929091909150600082015181600001556020820151816001019080519060200190611786929190612885565b5060408201518160020160006101000a81548173ffffffffffffffffffffffffffffffffffffffff021916908373ffffffffffffffffffffffffffffffffffffffff16021790555060608201518160030160006101000a81548173ffffffffffffffffffffffffffffffffffffffff021916908373ffffffffffffffffffffffffffffffffffffffff1602179055506080820151816004015560a08201518160050160006101000a81548160ff021916908360ff16021790555060c08201518160050160016101000a81548160ff021916908360ff16021790555060e08201518160050160026101000a81548161ffff021916908361ffff16021790555061010082015181600601556101208201518160070160006101000a81548160ff02191690831515021790555050505080600360003373ffffffffffffffffffffffffffffffffffffffff1673ffffffffffffffffffffffffffffffffffffffff16815260200190815260200160002060008b73ffffffffffffffffffffffffffffffffffffffff1673ffffffffffffffffffffffffffffffffffffffff168152602001908152602001600020600082015181600001556020820151816001019080519060200190611956929190612885565b5060408201518160020160006101000a81548173ffffffffffffffffffffffffffffffffffffffff021916908373ffffffffffffffffffffffffffffffffffffffff16021790555060608201518160030160006101000a81548173ffffffffffffffffffffffffffffffffffffffff021916908373ffffffffffffffffffffffffffffffffffffffff1602179055506080820151816004015560a08201518160050160006101000a81548160ff021916908360ff16021790555060c08201518160050160016101000a81548160ff021916908360ff16021790555060e08201518160050160026101000a81548161ffff021916908361ffff16021790555061010082015181600601556101208201518160070160006101000a81548160ff0219169083151502179055509050506001600460003373ffffffffffffffffffffffffffffffffffffffff1673ffffffffffffffffffffffffffffffffffffffff1681526020019081526020016000205401600460003373ffffffffffffffffffffffffffffffffffffffff1673ffffffffffffffffffffffffffffffffffffffff16815260200190815260200160002081905550336005600084815260200190815260200160002060006101000a81548173ffffffffffffffffffffffffffffffffffffffff021916908373ffffffffffffffffffffffffffffffffffffffff1602179055508060066000848152602001908152602001600020600082015181600001556020820151816001019080519060200190611b95929190612885565b5060408201518160020160006101000a81548173ffffffffffffffffffffffffffffffffffffffff021916908373ffffffffffffffffffffffffffffffffffffffff16021790555060608201518160030160006101000a81548173ffffffffffffffffffffffffffffffffffffffff021916908373ffffffffffffffffffffffffffffffffffffffff1602179055506080820151816004015560a08201518160050160006101000a81548160ff021916908360ff16021790555060c08201518160050160016101000a81548160ff021916908360ff16021790555060e08201518160050160026101000a81548161ffff021916908361ffff16021790555061010082015181600601556101208201518160070160006101000a81548160ff0219169083151502179055509050503373ffffffffffffffffffffffffffffffffffffffff167f0a79189c04c0f3c335646a007e34407f83a6fbcb6c24c426c9de6be912a6821c60405160405180910390a23373ffffffffffffffffffffffffffffffffffffffff167fa448afda7ea1e3a7a10fcab0c29fe9a9dd85791503bf0171f281521551c7ec05600260003373ffffffffffffffffffffffffffffffffffffffff1673ffffffffffffffffffffffffffffffffffffffff16815260200190815260200160002054604051611d8a919061329c565b60405180910390a25050505050505050505050565b6000611daa82612167565b602001519050919050565b60008060048361ffff1681611dc657fe5b0661ffff1614611dd95760009050611e25565b600060648361ffff1681611de957fe5b0661ffff1614611dfc5760019050611e25565b60006101908361ffff1681611e0d57fe5b0661ffff1614611e205760009050611e25565b600190505b919050565b60006001820391506101908281611e3d57fe5b0460648381611e4857fe5b0460048481611e5357fe5b0403019050919050565b600060018360ff161480611e74575060038360ff16145b80611e82575060058360ff16145b80611e90575060078360ff16145b80611e9e575060088360ff16145b80611eac5750600a8360ff16145b80611eba5750600c8360ff16145b15611ec857601f9050611f23565b60048360ff161480611edd575060068360ff16145b80611eeb575060098360ff16145b80611ef95750600b8360ff16145b15611f0757601e9050611f23565b611f1082611db5565b15611f1e57601d9050611f23565b601c90505b92915050565b6000600260003373ffffffffffffffffffffffffffffffffffffffff1673ffffffffffffffffffffffffffffffffffffffff16815260200190815260200160002054905090565b6000611f7b42611566565b905090565b60003411611f8d57600080fd5b34600260003373ffffffffffffffffffffffffffffffffffffffff1673ffffffffffffffffffffffffffffffffffffffff1681526020019081526020016000205401600260003373ffffffffffffffffffffffffffffffffffffffff1673ffffffffffffffffffffffffffffffffffffffff168152602001908152602001600020819055503373ffffffffffffffffffffffffffffffffffffffff167fa448afda7ea1e3a7a10fcab0c29fe9a9dd85791503bf0171f281521551c7ec05600260003373ffffffffffffffffffffffffffffffffffffffff1673ffffffffffffffffffffffffffffffffffffffff16815260200190815260200160002054604051612097919061329c565b60405180910390a2565b60006120ac42611d9f565b905090565b6120b9610f3d565b6120c257600080fd5b6120cb81612304565b50565b60008090505b600180549050811015612147576000600182815481106120f057fe5b90600052602060002090600802019050612109816123fc565b801561212a5750600115158160070160009054906101000a900460ff161515145b15612139576121388161248b565b5b5080806001019150506120d4565b50565b6000603c80838161215757fe5b048161215f57fe5b069050919050565b61216f612905565b600080905060008061218085611566565b846000019061ffff16908161ffff16815250506121a26107b261ffff16611e2a565b6121b3856000015161ffff16611e2a565b039150816301e285000283019250816107b285600001510361ffff16036301e1338002830192506000600191505b600c8260ff1611612237576121fa828660000151611e5d565b60ff16620151800290508584820111156122255781856020019060ff16908160ff1681525050612237565b808401935081806001019250506121e1565b600191505b61224e85602001518660000151611e5d565b60ff168260ff16116122935785846201518001111561227e5781856040019060ff16908160ff1681525050612293565b6201518084019350818060010192505061223c565b61229c86610a39565b856060019060ff16908160ff16815250506122b68661214a565b856080019060ff16908160ff16815250506122d086610ee5565b8560a0019060ff16908160ff16815250506122ea86610c18565b8560c0019060ff16908160ff168152505050505050919050565b600073ffffffffffffffffffffffffffffffffffffffff168173ffffffffffffffffffffffffffffffffffffffff16141561233e57600080fd5b8073ffffffffffffffffffffffffffffffffffffffff166000809054906101000a900473ffffffffffffffffffffffffffffffffffffffff1673ffffffffffffffffffffffffffffffffffffffff167f8be0079c531659141344cd1fd0a4f28419497f9722a3daafe3b4186f6b6457e060405160405180910390a3806000806101000a81548173ffffffffffffffffffffffffffffffffffffffff021916908373ffffffffffffffffffffffffffffffffffffffff16021790555050565b600061240742611566565b61ffff168260050160029054906101000a900461ffff1661ffff1614801561244d575061243342611d9f565b60ff168260050160019054906101000a900460ff1660ff16145b8015612477575061245d42610c76565b60ff168260050160009054906101000a900460ff1660ff16145b156124855760019050612486565b5b919050565b8060040154600260008360020160009054906101000a900473ffffffffffffffffffffffffffffffffffffffff1673ffffffffffffffffffffffffffffffffffffffff1673ffffffffffffffffffffffffffffffffffffffff1681526020019081526020016000205410156124ff57600080fd5b8060030160009054906101000a900473ffffffffffffffffffffffffffffffffffffffff1673ffffffffffffffffffffffffffffffffffffffff166108fc82600401549081150290604051600060405180830381858888f1935050505015801561256d573d6000803e3d6000fd5b508060040154600260008360020160009054906101000a900473ffffffffffffffffffffffffffffffffffffffff1673ffffffffffffffffffffffffffffffffffffffff1673ffffffffffffffffffffffffffffffffffffffff1681526020019081526020016000205403600260008360020160009054906101000a900473ffffffffffffffffffffffffffffffffffffffff1673ffffffffffffffffffffffffffffffffffffffff1673ffffffffffffffffffffffffffffffffffffffff16815260200190815260200160002081905550600081600601544201905061265381610c76565b8260050160006101000a81548160ff021916908360ff16021790555061267881611d9f565b8260050160016101000a81548160ff021916908360ff16021790555061269d81611566565b8260050160026101000a81548161ffff021916908361ffff1602179055503373ffffffffffffffffffffffffffffffffffffffff167fa448afda7ea1e3a7a10fcab0c29fe9a9dd85791503bf0171f281521551c7ec05600260003373ffffffffffffffffffffffffffffffffffffffff1673ffffffffffffffffffffffffffffffffffffffff16815260200190815260200160002054604051612740919061329c565b60405180910390a25050565b604051806101800160405280600c90602082028038833980820191505090505090565b6040518061014001604052806000815260200160608152602001600073ffffffffffffffffffffffffffffffffffffffff168152602001600073ffffffffffffffffffffffffffffffffffffffff16815260200160008152602001600060ff168152602001600060ff168152602001600061ffff168152602001600081526020016000151581525090565b6040518061014001604052806000815260200160608152602001600073ffffffffffffffffffffffffffffffffffffffff168152602001600073ffffffffffffffffffffffffffffffffffffffff16815260200160008152602001600060ff168152602001600060ff168152602001600061ffff168152602001600081526020016000151581525090565b828054600181600116156101000203166002900490600052602060002090601f016020900481019282601f106128c657805160ff19168380011785556128f4565b828001600101855582156128f4579182015b828111156128f35782518255916020019190600101906128d8565b5b5090506129019190612958565b5090565b6040518060e00160405280600061ffff168152602001600060ff168152602001600060ff168152602001600060ff168152602001600060ff168152602001600060ff168152602001600060ff1681525090565b61297a91905b8082111561297657600081600090555060010161295e565b5090565b90565b60008135905061298c81613512565b92915050565b6000813590506129a181613529565b92915050565b60008083601f8401126129b957600080fd5b8235905067ffffffffffffffff8111156129d257600080fd5b6020830191508360018202830111156129ea57600080fd5b9250929050565b600082601f830112612a0257600080fd5b8135612a15612a10826133a2565b613375565b91508082526020830160208301858383011115612a3157600080fd5b612a3c8382846134bf565b50505092915050565b600081359050612a5481613540565b92915050565b600081359050612a6981613557565b92915050565b600081359050612a7e8161356e565b92915050565b600060208284031215612a9657600080fd5b6000612aa48482850161297d565b91505092915050565b600080600080600080600080600060e08a8c031215612acb57600080fd5b60008a013567ffffffffffffffff811115612ae557600080fd5b612af18c828d016129a7565b99509950506020612b048c828d01612992565b9750506040612b158c828d01612a5a565b9650506060612b268c828d01612a6f565b9550506080612b378c828d01612a6f565b94505060a0612b488c828d01612a45565b93505060c08a013567ffffffffffffffff811115612b6557600080fd5b612b718c828d016129a7565b92509250509295985092959850929598565b600060208284031215612b9557600080fd5b600082013567ffffffffffffffff811115612baf57600080fd5b612bbb848285016129f1565b91505092915050565b600060208284031215612bd657600080fd5b6000612be484828501612a45565b91505092915050565b600080600060608486031215612c0257600080fd5b6000612c1086828701612a45565b9350506020612c2186828701612a6f565b9250506040612c3286828701612a6f565b9150509250925092565b60008060008060808587031215612c5257600080fd5b6000612c6087828801612a45565b9450506020612c7187828801612a6f565b9350506040612c8287828801612a6f565b9250506060612c9387828801612a6f565b91505092959194509250565b600080600080600060a08688031215612cb757600080fd5b6000612cc588828901612a45565b9550506020612cd688828901612a6f565b9450506040612ce788828901612a6f565b9350506060612cf888828901612a6f565b9250506080612d0988828901612a6f565b9150509295509295909350565b60008060008060008060c08789031215612d2f57600080fd5b6000612d3d89828a01612a45565b9650506020612d4e89828a01612a6f565b9550506040612d5f89828a01612a6f565b9450506060612d7089828a01612a6f565b9350506080612d8189828a01612a6f565b92505060a0612d9289828a01612a6f565b9150509295509295509295565b600060208284031215612db157600080fd5b6000612dbf84828501612a5a565b91505092915050565b60008060408385031215612ddb57600080fd5b6000612de985828601612a6f565b9250506020612dfa85828601612a45565b9150509250929050565b6000612e10838361308a565b905092915050565b612e218161345c565b82525050565b612e308161345c565b82525050565b612e3f8161344a565b82525050565b612e4e8161344a565b82525050565b6000612e5f826133de565b612e69818561340c565b935083602082028501612e7b856133ce565b8060005b85811015612eb75784840389528151612e988582612e04565b9450612ea3836133ff565b925060208a01995050600181019050612e7f565b50829750879550505050505092915050565b612ed28161346e565b82525050565b612ee18161346e565b82525050565b6000612ef2826133f4565b612efc818561343f565b9350612f0c8185602086016134ce565b80840191505092915050565b6000612f23826133e9565b612f2d818561341d565b9350612f3d8185602086016134ce565b612f4681613501565b840191505092915050565b6000612f5c826133e9565b612f66818561342e565b9350612f768185602086016134ce565b612f7f81613501565b840191505092915050565b6000612f9760078361343f565b91507f6d6f6e74686c79000000000000000000000000000000000000000000000000006000830152600782019050919050565b6000612fd760068361343f565b91507f796561726c7900000000000000000000000000000000000000000000000000006000830152600682019050919050565b600061301760068361343f565b91507f7765656b6c7900000000000000000000000000000000000000000000000000006000830152600682019050919050565b600061305760058361343f565b91507f6461696c790000000000000000000000000000000000000000000000000000006000830152600582019050919050565b6000610140830160008301516130a36000860182613182565b50602083015184820360208601526130bb8282612f18565b91505060408301516130d06040860182612e36565b5060608301516130e36060860182612e18565b5060808301516130f66080860182613182565b5060a083015161310960a08601826131a0565b5060c083015161311c60c08601826131a0565b5060e083015161312f60e0860182613164565b50610100830151613144610100860182613182565b50610120830151613159610120860182612ec9565b508091505092915050565b61316d8161347a565b82525050565b61317c8161347a565b82525050565b61318b816134a8565b82525050565b61319a816134a8565b82525050565b6131a9816134b2565b82525050565b6131b8816134b2565b82525050565b60006131ca8284612ee7565b915081905092915050565b60006131e082612f8a565b9150819050919050565b60006131f582612fca565b9150819050919050565b600061320a8261300a565b9150819050919050565b600061321f8261304a565b9150819050919050565b600060208201905061323e6000830184612e45565b92915050565b6000602082019050818103600083015261325e8184612e54565b905092915050565b600060208201905061327b6000830184612ed8565b92915050565b60006020820190506132966000830184613173565b92915050565b60006020820190506132b16000830184613191565b92915050565b6000610140820190506132cd600083018d613191565b81810360208301526132df818c612f51565b90506132ee604083018b612e45565b6132fb606083018a612e27565b6133086080830189613191565b61331560a08301886131af565b61332260c08301876131af565b61332f60e0830186613173565b61333d610100830185613191565b61334b610120830184612ed8565b9b9a5050505050505050505050565b600060208201905061336f60008301846131af565b92915050565b6000604051905081810181811067ffffffffffffffff8211171561339857600080fd5b8060405250919050565b600067ffffffffffffffff8211156133b957600080fd5b601f19601f8301169050602081019050919050565b6000819050602082019050919050565b600081519050919050565b600081519050919050565b600081519050919050565b6000602082019050919050565b600082825260208201905092915050565b600082825260208201905092915050565b600082825260208201905092915050565b600081905092915050565b600061345582613488565b9050919050565b600061346782613488565b9050919050565b60008115159050919050565b600061ffff82169050919050565b600073ffffffffffffffffffffffffffffffffffffffff82169050919050565b6000819050919050565b600060ff82169050919050565b82818337600083830152505050565b60005b838110156134ec5780820151818401526020810190506134d1565b838111156134fb576000848401525b50505050565b6000601f19601f8301169050919050565b61351b8161344a565b811461352657600080fd5b50565b6135328161345c565b811461353d57600080fd5b50565b6135498161347a565b811461355457600080fd5b50565b613560816134a8565b811461356b57600080fd5b50565b613577816134b2565b811461358257600080fd5b5056fea365627a7a723158201a1ce20f60dd81e2d481183587dc5da2853aab73a1f1d17594c59b397aa574ca6c6578706572696d656e74616cf564736f6c63430005100040",
  "source": "pragma solidity ^0.5.0;\npragma experimental ABIEncoderV2;\n\nimport \"./ownable.sol\";\nimport \"./datetime.sol\";\n\ncontract OnePay is Ownable, DateTime {\n\n    event BalanceChanged(address indexed _owner, uint256 _newBalance);\n    event BeneficionariesChanged(address indexed _owner);\n\n    struct Payment {\n        uint id;\n        string name;\n        address from;\n        address payable to;\n        uint amount;\n        uint8 nextDay;\n        uint8 nextMonth;\n        uint16 nextYear;\n        uint interval;\n        bool active;\n    }\n\n    Payment[] public payments;\n\n    mapping (address => uint256) ownerToBalance; \n    mapping (address =>mapping(address=> Payment)) ownerToPayment;\n    mapping (address => uint) ownerPaymentCount;\n    mapping (uint => address) paymentIdToOwner;\n    mapping (uint => Payment) paymentIdToPayment;\n\n    constructor() public {\n        ownerToBalance[msg.sender] = 0;\n    }\n\n    function getSmartContractBalance() external view returns(uint256){\n        return address(this).balance;\n    }\n\n    function getUserBalance() external view returns(uint256){\n        return ownerToBalance[msg.sender];\n    }\n\n    function getAddress() external view returns(address){\n        return address(this);\n    }\n\n    function fundAccount() external payable {\n        require(msg.value > 0);\n        ownerToBalance[msg.sender] = ownerToBalance[msg.sender] + msg.value;\n        emit BalanceChanged(msg.sender, ownerToBalance[msg.sender]);\n    }\n\n    function withdrawFromAccount(uint256 _amount) external{\n        require(_amount <= ownerToBalance[msg.sender]);\n        msg.sender.transfer(_amount);\n        ownerToBalance[msg.sender] = ownerToBalance[msg.sender] - _amount;\n        emit BalanceChanged(msg.sender, ownerToBalance[msg.sender]);\n    }\n\n    function getInterval(string memory _interval) public pure returns (uint){\n        if(keccak256(abi.encodePacked(_interval)) == keccak256(abi.encodePacked(\"daily\"))){\n            return 1 days;\n        }\n        if(keccak256(abi.encodePacked(_interval)) == keccak256(abi.encodePacked(\"weekly\"))){\n            return 7 days;\n        }\n        if(keccak256(abi.encodePacked(_interval)) == keccak256(abi.encodePacked(\"monthly\"))){\n            return 30 days;\n        }\n        if(keccak256(abi.encodePacked(_interval)) == keccak256(abi.encodePacked(\"yearly\"))){\n            return 365 days;\n        }\n    }\n\n    function addNewBeneficiary(string calldata _name, address payable _to, uint _amount, uint8 _day, uint8 _month, uint16 _year, string calldata _interval) external {\n        uint id = payments.length;\n        Payment memory newPayment = Payment(\n            id,\n            _name,\n            msg.sender,\n            _to,\n            _amount,\n            _day,\n            _month,\n            _year, \n            getInterval(_interval),\n            true\n        );\n        payments.push(newPayment);\n        ownerToPayment[msg.sender][_to] =  newPayment;\n        ownerPaymentCount[msg.sender] = ownerPaymentCount[msg.sender]+1;\n        paymentIdToOwner[id]=msg.sender;\n        paymentIdToPayment[id]= newPayment;\n        emit BeneficionariesChanged(msg.sender);\n        emit BalanceChanged(msg.sender, ownerToBalance[msg.sender]);\n    }\n\n    function getCurrentDay() public view returns(uint8){\n        return getDay(now);\n    }\n    function getCurrentMonth() public view returns(uint8){\n        return getMonth(now);\n    }\n    function getCurrentYear() public view returns(uint16){\n        return getYear(now);\n    }\n\n    function paymentToday(Payment storage _payment) internal view returns(bool){\n        if( _payment.nextYear == getYear(now) && _payment.nextMonth == getMonth(now) && _payment.nextDay == getDay(now)){\n            return true;\n        }\n    }\n\n    function sendPayment(Payment storage _payment)internal{\n        require(ownerToBalance[_payment.from] >= _payment.amount);\n        _payment.to.transfer(_payment.amount);\n        ownerToBalance[_payment.from] = ownerToBalance[_payment.from] - _payment.amount;\n        uint nextTimeStamp = now + _payment.interval;\n        _payment.nextDay = getDay(nextTimeStamp);\n        _payment.nextMonth = getMonth(nextTimeStamp);\n        _payment.nextYear = getYear(nextTimeStamp);\n        emit BalanceChanged(msg.sender, ownerToBalance[msg.sender]);\n    }\n\n    function dispersePayments() public{\n        for(uint i = 0; i < payments.length; i++){\n            Payment storage currentPayment = payments[i];\n            if(paymentToday(currentPayment) && currentPayment.active==true){\n                sendPayment(currentPayment);\n            }\n        }\n    }\n\n    function getBeneficiaries() public view returns (Payment[] memory){\n        Payment[] memory result = new Payment[](ownerPaymentCount[msg.sender]);\n        uint counter = 0;\n        for(uint i = 0; i < payments.length; i++){\n            if(payments[i].from == msg.sender){\n                result[counter] = payments[i];\n                counter++;\n            }\n        }\n        return result;\n    }\n\n    function toggleBeneficiary(uint _id) public {\n        Payment storage currentPayment = payments[_id];\n        currentPayment.active = !currentPayment.active;\n        emit BeneficionariesChanged(msg.sender);\n    }\n  \n\n\n}",
  "sourcePath": "/Users/eddyreynoso/Desktop/defi/src/contracts/OnePay.sol",
  "compiler": {
    "name": "solc",
    "version": "0.5.16+commit.9c3226ce.Emscripten.clang"
  },
  "schemaVersion": "3.2.3",
  "updatedAt": "2021-05-13T00:29:52.662Z",
  "networkType": "ethereum",
  "devdoc": {
    "methods": {
      "isOwner()": {
        "return": "true if `msg.sender` is the owner of the contract."
      },
      "owner()": {
        "return": "the address of the owner."
      },
      "renounceOwnership()": {
        "details": "Allows the current owner to relinquish control of the contract."
      },
      "transferOwnership(address)": {
        "details": "Allows the current owner to transfer control of the contract to a newOwner.",
        "params": {
          "newOwner": "The address to transfer ownership to."
        }
      }
    }
  },
  "userdoc": {
    "methods": {
      "renounceOwnership()": {
        "notice": "Renouncing to ownership will leave the contract without an owner. It will not be possible to call the functions with the `onlyOwner` modifier anymore."
      }
    }
  }
}