{
  "contractName": "OnePay",
  "abi": [
    {
      "inputs": [],
      "payable": false,
      "stateMutability": "nonpayable",
      "type": "constructor"
    },
    {
      "anonymous": false,
      "inputs": [
        {
          "indexed": true,
          "internalType": "address",
          "name": "_owner",
          "type": "address"
        },
        {
          "indexed": false,
          "internalType": "uint256",
          "name": "_newBalance",
          "type": "uint256"
        }
      ],
      "name": "BalanceChanged",
      "type": "event"
    },
    {
      "anonymous": false,
      "inputs": [
        {
          "indexed": true,
          "internalType": "address",
          "name": "_owner",
          "type": "address"
        }
      ],
      "name": "BeneficionariesChanged",
      "type": "event"
    },
    {
      "anonymous": false,
      "inputs": [
        {
          "indexed": true,
          "internalType": "address",
          "name": "previousOwner",
          "type": "address"
        },
        {
          "indexed": true,
          "internalType": "address",
          "name": "newOwner",
          "type": "address"
        }
      ],
      "name": "OwnershipTransferred",
      "type": "event"
    },
    {
      "constant": true,
      "inputs": [
        {
          "internalType": "uint256",
          "name": "timestamp",
          "type": "uint256"
        }
      ],
      "name": "getDay",
      "outputs": [
        {
          "internalType": "uint8",
          "name": "",
          "type": "uint8"
        }
      ],
      "payable": false,
      "stateMutability": "pure",
      "type": "function"
    },
    {
      "constant": true,
      "inputs": [
        {
          "internalType": "uint8",
          "name": "month",
          "type": "uint8"
        },
        {
          "internalType": "uint16",
          "name": "year",
          "type": "uint16"
        }
      ],
      "name": "getDaysInMonth",
      "outputs": [
        {
          "internalType": "uint8",
          "name": "",
          "type": "uint8"
        }
      ],
      "payable": false,
      "stateMutability": "pure",
      "type": "function"
    },
    {
      "constant": true,
      "inputs": [
        {
          "internalType": "uint256",
          "name": "timestamp",
          "type": "uint256"
        }
      ],
      "name": "getHour",
      "outputs": [
        {
          "internalType": "uint8",
          "name": "",
          "type": "uint8"
        }
      ],
      "payable": false,
      "stateMutability": "pure",
      "type": "function"
    },
    {
      "constant": true,
      "inputs": [
        {
          "internalType": "uint256",
          "name": "timestamp",
          "type": "uint256"
        }
      ],
      "name": "getMinute",
      "outputs": [
        {
          "internalType": "uint8",
          "name": "",
          "type": "uint8"
        }
      ],
      "payable": false,
      "stateMutability": "pure",
      "type": "function"
    },
    {
      "constant": true,
      "inputs": [
        {
          "internalType": "uint256",
          "name": "timestamp",
          "type": "uint256"
        }
      ],
      "name": "getMonth",
      "outputs": [
        {
          "internalType": "uint8",
          "name": "",
          "type": "uint8"
        }
      ],
      "payable": false,
      "stateMutability": "pure",
      "type": "function"
    },
    {
      "constant": true,
      "inputs": [
        {
          "internalType": "uint256",
          "name": "timestamp",
          "type": "uint256"
        }
      ],
      "name": "getSecond",
      "outputs": [
        {
          "internalType": "uint8",
          "name": "",
          "type": "uint8"
        }
      ],
      "payable": false,
      "stateMutability": "pure",
      "type": "function"
    },
    {
      "constant": true,
      "inputs": [
        {
          "internalType": "uint256",
          "name": "timestamp",
          "type": "uint256"
        }
      ],
      "name": "getWeekday",
      "outputs": [
        {
          "internalType": "uint8",
          "name": "",
          "type": "uint8"
        }
      ],
      "payable": false,
      "stateMutability": "pure",
      "type": "function"
    },
    {
      "constant": true,
      "inputs": [
        {
          "internalType": "uint256",
          "name": "timestamp",
          "type": "uint256"
        }
      ],
      "name": "getYear",
      "outputs": [
        {
          "internalType": "uint16",
          "name": "",
          "type": "uint16"
        }
      ],
      "payable": false,
      "stateMutability": "pure",
      "type": "function"
    },
    {
      "constant": true,
      "inputs": [
        {
          "internalType": "uint16",
          "name": "year",
          "type": "uint16"
        }
      ],
      "name": "isLeapYear",
      "outputs": [
        {
          "internalType": "bool",
          "name": "",
          "type": "bool"
        }
      ],
      "payable": false,
      "stateMutability": "pure",
      "type": "function"
    },
    {
      "constant": true,
      "inputs": [],
      "name": "isOwner",
      "outputs": [
        {
          "internalType": "bool",
          "name": "",
          "type": "bool"
        }
      ],
      "payable": false,
      "stateMutability": "view",
      "type": "function"
    },
    {
      "constant": true,
      "inputs": [
        {
          "internalType": "uint256",
          "name": "year",
          "type": "uint256"
        }
      ],
      "name": "leapYearsBefore",
      "outputs": [
        {
          "internalType": "uint256",
          "name": "",
          "type": "uint256"
        }
      ],
      "payable": false,
      "stateMutability": "pure",
      "type": "function"
    },
    {
      "constant": true,
      "inputs": [],
      "name": "owner",
      "outputs": [
        {
          "internalType": "address",
          "name": "",
          "type": "address"
        }
      ],
      "payable": false,
      "stateMutability": "view",
      "type": "function"
    },
    {
      "constant": true,
      "inputs": [
        {
          "internalType": "uint256",
          "name": "",
          "type": "uint256"
        }
      ],
      "name": "payments",
      "outputs": [
        {
          "internalType": "uint256",
          "name": "id",
          "type": "uint256"
        },
        {
          "internalType": "string",
          "name": "name",
          "type": "string"
        },
        {
          "internalType": "address",
          "name": "from",
          "type": "address"
        },
        {
          "internalType": "address payable",
          "name": "to",
          "type": "address"
        },
        {
          "internalType": "uint256",
          "name": "amount",
          "type": "uint256"
        },
        {
          "internalType": "uint8",
          "name": "nextDay",
          "type": "uint8"
        },
        {
          "internalType": "uint8",
          "name": "nextMonth",
          "type": "uint8"
        },
        {
          "internalType": "uint16",
          "name": "nextYear",
          "type": "uint16"
        },
        {
          "internalType": "uint256",
          "name": "interval",
          "type": "uint256"
        },
        {
          "internalType": "bool",
          "name": "active",
          "type": "bool"
        }
      ],
      "payable": false,
      "stateMutability": "view",
      "type": "function"
    },
    {
      "constant": false,
      "inputs": [],
      "name": "renounceOwnership",
      "outputs": [],
      "payable": false,
      "stateMutability": "nonpayable",
      "type": "function"
    },
    {
      "constant": true,
      "inputs": [
        {
          "internalType": "uint16",
          "name": "year",
          "type": "uint16"
        },
        {
          "internalType": "uint8",
          "name": "month",
          "type": "uint8"
        },
        {
          "internalType": "uint8",
          "name": "day",
          "type": "uint8"
        },
        {
          "internalType": "uint8",
          "name": "hour",
          "type": "uint8"
        },
        {
          "internalType": "uint8",
          "name": "minute",
          "type": "uint8"
        }
      ],
      "name": "toTimestamp",
      "outputs": [
        {
          "internalType": "uint256",
          "name": "timestamp",
          "type": "uint256"
        }
      ],
      "payable": false,
      "stateMutability": "pure",
      "type": "function"
    },
    {
      "constant": true,
      "inputs": [
        {
          "internalType": "uint16",
          "name": "year",
          "type": "uint16"
        },
        {
          "internalType": "uint8",
          "name": "month",
          "type": "uint8"
        },
        {
          "internalType": "uint8",
          "name": "day",
          "type": "uint8"
        },
        {
          "internalType": "uint8",
          "name": "hour",
          "type": "uint8"
        }
      ],
      "name": "toTimestamp",
      "outputs": [
        {
          "internalType": "uint256",
          "name": "timestamp",
          "type": "uint256"
        }
      ],
      "payable": false,
      "stateMutability": "pure",
      "type": "function"
    },
    {
      "constant": true,
      "inputs": [
        {
          "internalType": "uint16",
          "name": "year",
          "type": "uint16"
        },
        {
          "internalType": "uint8",
          "name": "month",
          "type": "uint8"
        },
        {
          "internalType": "uint8",
          "name": "day",
          "type": "uint8"
        }
      ],
      "name": "toTimestamp",
      "outputs": [
        {
          "internalType": "uint256",
          "name": "timestamp",
          "type": "uint256"
        }
      ],
      "payable": false,
      "stateMutability": "pure",
      "type": "function"
    },
    {
      "constant": true,
      "inputs": [
        {
          "internalType": "uint16",
          "name": "year",
          "type": "uint16"
        },
        {
          "internalType": "uint8",
          "name": "month",
          "type": "uint8"
        },
        {
          "internalType": "uint8",
          "name": "day",
          "type": "uint8"
        },
        {
          "internalType": "uint8",
          "name": "hour",
          "type": "uint8"
        },
        {
          "internalType": "uint8",
          "name": "minute",
          "type": "uint8"
        },
        {
          "internalType": "uint8",
          "name": "second",
          "type": "uint8"
        }
      ],
      "name": "toTimestamp",
      "outputs": [
        {
          "internalType": "uint256",
          "name": "timestamp",
          "type": "uint256"
        }
      ],
      "payable": false,
      "stateMutability": "pure",
      "type": "function"
    },
    {
      "constant": false,
      "inputs": [
        {
          "internalType": "address",
          "name": "newOwner",
          "type": "address"
        }
      ],
      "name": "transferOwnership",
      "outputs": [],
      "payable": false,
      "stateMutability": "nonpayable",
      "type": "function"
    },
    {
      "constant": true,
      "inputs": [],
      "name": "getSmartContractBalance",
      "outputs": [
        {
          "internalType": "uint256",
          "name": "",
          "type": "uint256"
        }
      ],
      "payable": false,
      "stateMutability": "view",
      "type": "function"
    },
    {
      "constant": true,
      "inputs": [],
      "name": "getUserBalance",
      "outputs": [
        {
          "internalType": "uint256",
          "name": "",
          "type": "uint256"
        }
      ],
      "payable": false,
      "stateMutability": "view",
      "type": "function"
    },
    {
      "constant": true,
      "inputs": [],
      "name": "getAddress",
      "outputs": [
        {
          "internalType": "address",
          "name": "",
          "type": "address"
        }
      ],
      "payable": false,
      "stateMutability": "view",
      "type": "function"
    },
    {
      "constant": false,
      "inputs": [],
      "name": "fundAccount",
      "outputs": [],
      "payable": true,
      "stateMutability": "payable",
      "type": "function"
    },
    {
      "constant": false,
      "inputs": [
        {
          "internalType": "uint256",
          "name": "_amount",
          "type": "uint256"
        }
      ],
      "name": "withdrawFromAccount",
      "outputs": [
        {
          "internalType": "bool",
          "name": "",
          "type": "bool"
        }
      ],
      "payable": false,
      "stateMutability": "nonpayable",
      "type": "function"
    },
    {
      "constant": true,
      "inputs": [
        {
          "internalType": "string",
          "name": "_interval",
          "type": "string"
        }
      ],
      "name": "getInterval",
      "outputs": [
        {
          "internalType": "uint256",
          "name": "",
          "type": "uint256"
        }
      ],
      "payable": false,
      "stateMutability": "pure",
      "type": "function"
    },
    {
      "constant": false,
      "inputs": [
        {
          "internalType": "string",
          "name": "_name",
          "type": "string"
        },
        {
          "internalType": "address payable",
          "name": "_to",
          "type": "address"
        },
        {
          "internalType": "uint256",
          "name": "_amount",
          "type": "uint256"
        },
        {
          "internalType": "uint8",
          "name": "_day",
          "type": "uint8"
        },
        {
          "internalType": "uint8",
          "name": "_month",
          "type": "uint8"
        },
        {
          "internalType": "uint16",
          "name": "_year",
          "type": "uint16"
        },
        {
          "internalType": "string",
          "name": "_interval",
          "type": "string"
        }
      ],
      "name": "addNewBeneficiary",
      "outputs": [],
      "payable": false,
      "stateMutability": "nonpayable",
      "type": "function"
    },
    {
      "constant": true,
      "inputs": [],
      "name": "getCurrentDay",
      "outputs": [
        {
          "internalType": "uint8",
          "name": "",
          "type": "uint8"
        }
      ],
      "payable": false,
      "stateMutability": "view",
      "type": "function"
    },
    {
      "constant": true,
      "inputs": [],
      "name": "getCurrentMonth",
      "outputs": [
        {
          "internalType": "uint8",
          "name": "",
          "type": "uint8"
        }
      ],
      "payable": false,
      "stateMutability": "view",
      "type": "function"
    },
    {
      "constant": true,
      "inputs": [],
      "name": "getCurrentYear",
      "outputs": [
        {
          "internalType": "uint16",
          "name": "",
          "type": "uint16"
        }
      ],
      "payable": false,
      "stateMutability": "view",
      "type": "function"
    },
    {
      "constant": false,
      "inputs": [],
      "name": "dispersePayments",
      "outputs": [
        {
          "internalType": "string",
          "name": "",
          "type": "string"
        }
      ],
      "payable": false,
      "stateMutability": "nonpayable",
      "type": "function"
    },
    {
      "constant": true,
      "inputs": [],
      "name": "getBeneficiaries",
      "outputs": [
        {
          "components": [
            {
              "internalType": "uint256",
              "name": "id",
              "type": "uint256"
            },
            {
              "internalType": "string",
              "name": "name",
              "type": "string"
            },
            {
              "internalType": "address",
              "name": "from",
              "type": "address"
            },
            {
              "internalType": "address payable",
              "name": "to",
              "type": "address"
            },
            {
              "internalType": "uint256",
              "name": "amount",
              "type": "uint256"
            },
            {
              "internalType": "uint8",
              "name": "nextDay",
              "type": "uint8"
            },
            {
              "internalType": "uint8",
              "name": "nextMonth",
              "type": "uint8"
            },
            {
              "internalType": "uint16",
              "name": "nextYear",
              "type": "uint16"
            },
            {
              "internalType": "uint256",
              "name": "interval",
              "type": "uint256"
            },
            {
              "internalType": "bool",
              "name": "active",
              "type": "bool"
            }
          ],
          "internalType": "struct OnePay.Payment[]",
          "name": "",
          "type": "tuple[]"
        }
      ],
      "payable": false,
      "stateMutability": "view",
      "type": "function"
    },
    {
      "constant": false,
      "inputs": [
        {
          "internalType": "uint256",
          "name": "_id",
          "type": "uint256"
        }
      ],
      "name": "toggleBeneficiary",
      "outputs": [],
      "payable": false,
      "stateMutability": "nonpayable",
      "type": "function"
    }
  ],
  "bytecode": "0x608060405234801561001057600080fd5b50336000806101000a81548173ffffffffffffffffffffffffffffffffffffffff021916908373ffffffffffffffffffffffffffffffffffffffff1602179055506000809054906101000a900473ffffffffffffffffffffffffffffffffffffffff1673ffffffffffffffffffffffffffffffffffffffff16600073ffffffffffffffffffffffffffffffffffffffff167f8be0079c531659141344cd1fd0a4f28419497f9722a3daafe3b4186f6b6457e060405160405180910390a36000600260003373ffffffffffffffffffffffffffffffffffffffff1673ffffffffffffffffffffffffffffffffffffffff168152602001908152602001600020819055506136cd806101216000396000f3fe6080604052600436106101e35760003560e01c80638f32d59b11610102578063b238ad0e11610095578063ddd1b67e11610064578063ddd1b67e1461078c578063f2fde38b146107b7578063f9b57319146107e0578063fa93f8831461080b576101e3565b8063b238ad0e146106ef578063b7013dc11461072c578063ce41607a14610757578063d9a8748c14610782576101e3565b80639ad135f2116100d15780639ad135f21461060f578063a324ad2414610638578063a6f0e57714610675578063b1999937146106b2576101e3565b80638f32d59b1461053f5780639054bdec1461056a578063913b722c146105a757806392d66313146105d2576101e3565b806362ba96871161017a57806387d817891161014957806387d81789146104545780638aa001fc1461049a5780638c8d98a0146104d75780638da5cb5b14610514576101e3565b806362ba96871461038657806365c72840146103c3578063715018a6146104005780637f79183314610417576101e3565b80633e6968b6116101b65780633e6968b6146102b65780634792b098146102e15780634ac1ad781461031e5780635145cbc01461035b576101e3565b80631aab3a49146101e85780632c7067dc1461021157806338cc48311461024e5780633e239e1a14610279575b600080fd5b3480156101f457600080fd5b5061020f600480360361020a9190810190612e49565b610848565b005b34801561021d57600080fd5b5061023860048036036102339190810190612c2d565b6108dc565b60405161024591906133a1565b60405180910390f35b34801561025a57600080fd5b50610263610a59565b604051610270919061330c565b60405180910390f35b34801561028557600080fd5b506102a0600480360361029b9190810190612e49565b610a61565b6040516102ad919061345f565b60405180910390f35b3480156102c257600080fd5b506102cb610a88565b6040516102d8919061345f565b60405180910390f35b3480156102ed57600080fd5b5061030860048036036103039190810190612e49565b610a98565b6040516103159190613349565b60405180910390f35b34801561032a57600080fd5b5061034560048036036103409190810190612e49565b610c48565b604051610352919061345f565b60405180910390f35b34801561036757600080fd5b50610370610c6b565b60405161037d91906133a1565b60405180910390f35b34801561039257600080fd5b506103ad60048036036103a89190810190612d49565b610c8a565b6040516103ba91906133a1565b60405180910390f35b3480156103cf57600080fd5b506103ea60048036036103e59190810190612e49565b610ca6565b6040516103f7919061345f565b60405180910390f35b34801561040c57600080fd5b50610415610cbc565b005b34801561042357600080fd5b5061043e60048036036104399190810190612ce6565b610d8c565b60405161044b91906133a1565b60405180910390f35b34801561046057600080fd5b5061047b60048036036104769190810190612e49565b610da7565b6040516104919a999897969594939291906133bc565b60405180910390f35b3480156104a657600080fd5b506104c160048036036104bc9190810190612e49565b610f15565b6040516104ce919061345f565b60405180910390f35b3480156104e357600080fd5b506104fe60048036036104f99190810190612c97565b610f29565b60405161050b91906133a1565b60405180910390f35b34801561052057600080fd5b50610529610f44565b604051610536919061330c565b60405180910390f35b34801561054b57600080fd5b50610554610f6d565b6040516105619190613349565b60405180910390f35b34801561057657600080fd5b50610591600480360361058c9190810190612dc0565b610fc4565b60405161059e91906133a1565b60405180910390f35b3480156105b357600080fd5b506105bc61124f565b6040516105c99190613327565b60405180910390f35b3480156105de57600080fd5b506105f960048036036105f49190810190612e49565b611596565b6040516106069190613386565b60405180910390f35b34801561061b57600080fd5b5061063660048036036106319190810190612b57565b61163f565b005b34801561064457600080fd5b5061065f600480360361065a9190810190612e49565b611dcf565b60405161066c919061345f565b60405180910390f35b34801561068157600080fd5b5061069c60048036036106979190810190612c6e565b611de5565b6040516106a99190613349565b60405180910390f35b3480156106be57600080fd5b506106d960048036036106d49190810190612e49565b611e5a565b6040516106e691906133a1565b60405180910390f35b3480156106fb57600080fd5b5061071660048036036107119190810190612e72565b611e8d565b604051610723919061345f565b60405180910390f35b34801561073857600080fd5b50610741611f59565b60405161074e91906133a1565b60405180910390f35b34801561076357600080fd5b5061076c611fa0565b6040516107799190613386565b60405180910390f35b61078a611fb0565b005b34801561079857600080fd5b506107a16120d1565b6040516107ae919061345f565b60405180910390f35b3480156107c357600080fd5b506107de60048036036107d99190810190612b2e565b6120e1565b005b3480156107ec57600080fd5b506107f56120fe565b6040516108029190613364565b60405180910390f35b34801561081757600080fd5b50610832600480360361082d9190810190612e49565b6121f4565b60405161083f919061345f565b60405180910390f35b60006001828154811061085757fe5b906000526020600020906008020190508060070160009054906101000a900460ff16158160070160006101000a81548160ff0219169083151502179055503373ffffffffffffffffffffffffffffffffffffffff167f0a79189c04c0f3c335646a007e34407f83a6fbcb6c24c426c9de6be912a6821c60405160405180910390a25050565b60006040516020016108ed906132f7565b604051602081830303815290604052805190602001208260405160200161091491906132a1565b60405160208183030381529060405280519060200120141561093b57620151809050610a54565b60405160200161094a906132e2565b604051602081830303815290604052805190602001208260405160200161097191906132a1565b6040516020818303038152906040528051906020012014156109985762093a809050610a54565b6040516020016109a7906132b8565b60405160208183030381529060405280519060200120826040516020016109ce91906132a1565b6040516020818303038152906040528051906020012014156109f55762278d009050610a54565b604051602001610a04906132cd565b6040516020818303038152906040528051906020012082604051602001610a2b91906132a1565b604051602081830303815290604052805190602001201415610a53576301e133809050610a54565b5b919050565b600030905090565b60006018603c808481610a7057fe5b0481610a7857fe5b0481610a8057fe5b069050919050565b6000610a9342610ca6565b905090565b6000600260003373ffffffffffffffffffffffffffffffffffffffff1673ffffffffffffffffffffffffffffffffffffffff16815260200190815260200160002054821115610ae657600080fd5b3373ffffffffffffffffffffffffffffffffffffffff166108fc839081150290604051600060405180830381858888f19350505050158015610b2c573d6000803e3d6000fd5b5081600260003373ffffffffffffffffffffffffffffffffffffffff1673ffffffffffffffffffffffffffffffffffffffff1681526020019081526020016000205403600260003373ffffffffffffffffffffffffffffffffffffffff1673ffffffffffffffffffffffffffffffffffffffff168152602001908152602001600020819055503373ffffffffffffffffffffffffffffffffffffffff167fa448afda7ea1e3a7a10fcab0c29fe9a9dd85791503bf0171f281521551c7ec05600260003373ffffffffffffffffffffffffffffffffffffffff1673ffffffffffffffffffffffffffffffffffffffff16815260200190815260200160002054604051610c3791906133a1565b60405180910390a260019050919050565b600060076004620151808481610c5a57fe5b040181610c6357fe5b069050919050565b60003073ffffffffffffffffffffffffffffffffffffffff1631905090565b6000610c9b86868686866000610fc4565b905095945050505050565b6000610cb182612211565b604001519050919050565b610cc4610f6d565b610ccd57600080fd5b600073ffffffffffffffffffffffffffffffffffffffff166000809054906101000a900473ffffffffffffffffffffffffffffffffffffffff1673ffffffffffffffffffffffffffffffffffffffff167f8be0079c531659141344cd1fd0a4f28419497f9722a3daafe3b4186f6b6457e060405160405180910390a360008060006101000a81548173ffffffffffffffffffffffffffffffffffffffff021916908373ffffffffffffffffffffffffffffffffffffffff160217905550565b6000610d9d85858585600080610fc4565b9050949350505050565b60018181548110610db457fe5b9060005260206000209060080201600091509050806000015490806001018054600181600116156101000203166002900480601f016020809104026020016040519081016040528092919081815260200182805460018160011615610100020316600290048015610e665780601f10610e3b57610100808354040283529160200191610e66565b820191906000526020600020905b815481529060010190602001808311610e4957829003601f168201915b5050505050908060020160009054906101000a900473ffffffffffffffffffffffffffffffffffffffff16908060030160009054906101000a900473ffffffffffffffffffffffffffffffffffffffff16908060040154908060050160009054906101000a900460ff16908060050160019054906101000a900460ff16908060050160029054906101000a900461ffff16908060060154908060070160009054906101000a900460ff1690508a565b6000603c8281610f2157fe5b069050919050565b6000610f3b8484846000806000610fc4565b90509392505050565b60008060009054906101000a900473ffffffffffffffffffffffffffffffffffffffff16905090565b60008060009054906101000a900473ffffffffffffffffffffffffffffffffffffffff1673ffffffffffffffffffffffffffffffffffffffff163373ffffffffffffffffffffffffffffffffffffffff1614905090565b6000806107b290505b8761ffff168161ffff16101561101057610fe681611de5565b15610ff9576301e2850082019150611003565b6301e13380820191505b8080600101915050610fcd565b6110186127f6565b601f816000600c811061102757fe5b602002019060ff16908160ff168152505061104189611de5565b1561106b57601d816001600c811061105557fe5b602002019060ff16908160ff168152505061108c565b601c816001600c811061107a57fe5b602002019060ff16908160ff16815250505b601f816002600c811061109b57fe5b602002019060ff16908160ff1681525050601e816003600c81106110bb57fe5b602002019060ff16908160ff1681525050601f816004600c81106110db57fe5b602002019060ff16908160ff1681525050601e816005600c81106110fb57fe5b602002019060ff16908160ff1681525050601f816006600c811061111b57fe5b602002019060ff16908160ff1681525050601f816007600c811061113b57fe5b602002019060ff16908160ff1681525050601e816008600c811061115b57fe5b602002019060ff16908160ff1681525050601f816009600c811061117b57fe5b602002019060ff16908160ff1681525050601e81600a600c811061119b57fe5b602002019060ff16908160ff1681525050601f81600b600c81106111bb57fe5b602002019060ff16908160ff1681525050600191505b8760ff168261ffff16101561121157806001830361ffff16600c81106111f357fe5b602002015160ff1662015180028301925081806001019250506111d1565b6001870360ff166201518002830192508560ff16610e1002830192508460ff16603c02830192508360ff168301925082925050509695505050505050565b606080600460003373ffffffffffffffffffffffffffffffffffffffff1673ffffffffffffffffffffffffffffffffffffffff168152602001908152602001600020546040519080825280602002602001820160405280156112cb57816020015b6112b8612819565b8152602001906001900390816112b05790505b509050600080905060008090505b60018054905081101561158d573373ffffffffffffffffffffffffffffffffffffffff166001828154811061130a57fe5b906000526020600020906008020160020160009054906101000a900473ffffffffffffffffffffffffffffffffffffffff1673ffffffffffffffffffffffffffffffffffffffff161415611580576001818154811061136557fe5b90600052602060002090600802016040518061014001604052908160008201548152602001600182018054600181600116156101000203166002900480601f0160208091040260200160405190810160405280929190818152602001828054600181600116156101000203166002900480156114225780601f106113f757610100808354040283529160200191611422565b820191906000526020600020905b81548152906001019060200180831161140557829003601f168201915b505050505081526020016002820160009054906101000a900473ffffffffffffffffffffffffffffffffffffffff1673ffffffffffffffffffffffffffffffffffffffff1673ffffffffffffffffffffffffffffffffffffffff1681526020016003820160009054906101000a900473ffffffffffffffffffffffffffffffffffffffff1673ffffffffffffffffffffffffffffffffffffffff1673ffffffffffffffffffffffffffffffffffffffff168152602001600482015481526020016005820160009054906101000a900460ff1660ff1660ff1681526020016005820160019054906101000a900460ff1660ff1660ff1681526020016005820160029054906101000a900461ffff1661ffff1661ffff168152602001600682015481526020016007820160009054906101000a900460ff16151515158152505083838151811061156c57fe5b602002602001018190525081806001019250505b80806001019150506112d9565b50819250505090565b600080600090506000806301e1338085816115ad57fe5b046107b261ffff160191506115c76107b261ffff16611e5a565b6115d48361ffff16611e5a565b039050806301e285000283019250806107b2830361ffff16036301e1338002830192505b848311156116345761160c60018303611de5565b1561161f576301e2850083039250611629565b6301e13380830392505b6001820391506115f8565b819350505050919050565b600060018054905090506116516128a4565b6040518061014001604052808381526020018c8c8080601f016020809104026020016040519081016040528093929190818152602001838380828437600081840152601f19601f8201169050808301925050505050505081526020013373ffffffffffffffffffffffffffffffffffffffff1681526020018a73ffffffffffffffffffffffffffffffffffffffff1681526020018981526020018860ff1681526020018760ff1681526020018661ffff16815260200161175486868080601f016020809104026020016040519081016040528093929190818152602001838380828437600081840152601f19601f820116905080830192505050505050506108dc565b8152602001600115158152509050600181908060018154018082558091505090600182039060005260206000209060080201600090919290919091506000820151816000015560208201518160010190805190602001906117b692919061292f565b5060408201518160020160006101000a81548173ffffffffffffffffffffffffffffffffffffffff021916908373ffffffffffffffffffffffffffffffffffffffff16021790555060608201518160030160006101000a81548173ffffffffffffffffffffffffffffffffffffffff021916908373ffffffffffffffffffffffffffffffffffffffff1602179055506080820151816004015560a08201518160050160006101000a81548160ff021916908360ff16021790555060c08201518160050160016101000a81548160ff021916908360ff16021790555060e08201518160050160026101000a81548161ffff021916908361ffff16021790555061010082015181600601556101208201518160070160006101000a81548160ff02191690831515021790555050505080600360003373ffffffffffffffffffffffffffffffffffffffff1673ffffffffffffffffffffffffffffffffffffffff16815260200190815260200160002060008b73ffffffffffffffffffffffffffffffffffffffff1673ffffffffffffffffffffffffffffffffffffffff16815260200190815260200160002060008201518160000155602082015181600101908051906020019061198692919061292f565b5060408201518160020160006101000a81548173ffffffffffffffffffffffffffffffffffffffff021916908373ffffffffffffffffffffffffffffffffffffffff16021790555060608201518160030160006101000a81548173ffffffffffffffffffffffffffffffffffffffff021916908373ffffffffffffffffffffffffffffffffffffffff1602179055506080820151816004015560a08201518160050160006101000a81548160ff021916908360ff16021790555060c08201518160050160016101000a81548160ff021916908360ff16021790555060e08201518160050160026101000a81548161ffff021916908361ffff16021790555061010082015181600601556101208201518160070160006101000a81548160ff0219169083151502179055509050506001600460003373ffffffffffffffffffffffffffffffffffffffff1673ffffffffffffffffffffffffffffffffffffffff1681526020019081526020016000205401600460003373ffffffffffffffffffffffffffffffffffffffff1673ffffffffffffffffffffffffffffffffffffffff16815260200190815260200160002081905550336005600084815260200190815260200160002060006101000a81548173ffffffffffffffffffffffffffffffffffffffff021916908373ffffffffffffffffffffffffffffffffffffffff1602179055508060066000848152602001908152602001600020600082015181600001556020820151816001019080519060200190611bc592919061292f565b5060408201518160020160006101000a81548173ffffffffffffffffffffffffffffffffffffffff021916908373ffffffffffffffffffffffffffffffffffffffff16021790555060608201518160030160006101000a81548173ffffffffffffffffffffffffffffffffffffffff021916908373ffffffffffffffffffffffffffffffffffffffff1602179055506080820151816004015560a08201518160050160006101000a81548160ff021916908360ff16021790555060c08201518160050160016101000a81548160ff021916908360ff16021790555060e08201518160050160026101000a81548161ffff021916908361ffff16021790555061010082015181600601556101208201518160070160006101000a81548160ff0219169083151502179055509050503373ffffffffffffffffffffffffffffffffffffffff167f0a79189c04c0f3c335646a007e34407f83a6fbcb6c24c426c9de6be912a6821c60405160405180910390a23373ffffffffffffffffffffffffffffffffffffffff167fa448afda7ea1e3a7a10fcab0c29fe9a9dd85791503bf0171f281521551c7ec05600260003373ffffffffffffffffffffffffffffffffffffffff1673ffffffffffffffffffffffffffffffffffffffff16815260200190815260200160002054604051611dba91906133a1565b60405180910390a25050505050505050505050565b6000611dda82612211565b602001519050919050565b60008060048361ffff1681611df657fe5b0661ffff1614611e095760009050611e55565b600060648361ffff1681611e1957fe5b0661ffff1614611e2c5760019050611e55565b60006101908361ffff1681611e3d57fe5b0661ffff1614611e505760009050611e55565b600190505b919050565b60006001820391506101908281611e6d57fe5b0460648381611e7857fe5b0460048481611e8357fe5b0403019050919050565b600060018360ff161480611ea4575060038360ff16145b80611eb2575060058360ff16145b80611ec0575060078360ff16145b80611ece575060088360ff16145b80611edc5750600a8360ff16145b80611eea5750600c8360ff16145b15611ef857601f9050611f53565b60048360ff161480611f0d575060068360ff16145b80611f1b575060098360ff16145b80611f295750600b8360ff16145b15611f3757601e9050611f53565b611f4082611de5565b15611f4e57601d9050611f53565b601c90505b92915050565b6000600260003373ffffffffffffffffffffffffffffffffffffffff1673ffffffffffffffffffffffffffffffffffffffff16815260200190815260200160002054905090565b6000611fab42611596565b905090565b60003411611fbd57600080fd5b34600260003373ffffffffffffffffffffffffffffffffffffffff1673ffffffffffffffffffffffffffffffffffffffff1681526020019081526020016000205401600260003373ffffffffffffffffffffffffffffffffffffffff1673ffffffffffffffffffffffffffffffffffffffff168152602001908152602001600020819055503373ffffffffffffffffffffffffffffffffffffffff167fa448afda7ea1e3a7a10fcab0c29fe9a9dd85791503bf0171f281521551c7ec05600260003373ffffffffffffffffffffffffffffffffffffffff1673ffffffffffffffffffffffffffffffffffffffff168152602001908152602001600020546040516120c791906133a1565b60405180910390a2565b60006120dc42611dcf565b905090565b6120e9610f6d565b6120f257600080fd5b6120fb816123ae565b50565b606060008090505b6001805490508110156121b75760006001828154811061212257fe5b9060005260206000209060080201905061213b816124a6565b801561215c5750600115158160070160009054906101000a900460ff161515145b156121a95761216a81612535565b6040518060400160405280600381526020017f6162630000000000000000000000000000000000000000000000000000000000815250925050506121f1565b508080600101915050612106565b506040518060400160405280600381526020017f646566000000000000000000000000000000000000000000000000000000000081525090505b90565b6000603c80838161220157fe5b048161220957fe5b069050919050565b6122196129af565b600080905060008061222a85611596565b846000019061ffff16908161ffff168152505061224c6107b261ffff16611e5a565b61225d856000015161ffff16611e5a565b039150816301e285000283019250816107b285600001510361ffff16036301e1338002830192506000600191505b600c8260ff16116122e1576122a4828660000151611e8d565b60ff16620151800290508584820111156122cf5781856020019060ff16908160ff16815250506122e1565b8084019350818060010192505061228b565b600191505b6122f885602001518660000151611e8d565b60ff168260ff161161233d578584620151800111156123285781856040019060ff16908160ff168152505061233d565b620151808401935081806001019250506122e6565b61234686610a61565b856060019060ff16908160ff1681525050612360866121f4565b856080019060ff16908160ff168152505061237a86610f15565b8560a0019060ff16908160ff168152505061239486610c48565b8560c0019060ff16908160ff168152505050505050919050565b600073ffffffffffffffffffffffffffffffffffffffff168173ffffffffffffffffffffffffffffffffffffffff1614156123e857600080fd5b8073ffffffffffffffffffffffffffffffffffffffff166000809054906101000a900473ffffffffffffffffffffffffffffffffffffffff1673ffffffffffffffffffffffffffffffffffffffff167f8be0079c531659141344cd1fd0a4f28419497f9722a3daafe3b4186f6b6457e060405160405180910390a3806000806101000a81548173ffffffffffffffffffffffffffffffffffffffff021916908373ffffffffffffffffffffffffffffffffffffffff16021790555050565b60006124b142611596565b61ffff168260050160029054906101000a900461ffff1661ffff161480156124f757506124dd42611dcf565b60ff168260050160019054906101000a900460ff1660ff16145b8015612521575061250742610ca6565b60ff168260050160009054906101000a900460ff1660ff16145b1561252f5760019050612530565b5b919050565b8060040154600260008360020160009054906101000a900473ffffffffffffffffffffffffffffffffffffffff1673ffffffffffffffffffffffffffffffffffffffff1673ffffffffffffffffffffffffffffffffffffffff1681526020019081526020016000205410156125a957600080fd5b8060030160009054906101000a900473ffffffffffffffffffffffffffffffffffffffff1673ffffffffffffffffffffffffffffffffffffffff166108fc82600401549081150290604051600060405180830381858888f19350505050158015612617573d6000803e3d6000fd5b508060040154600260008360020160009054906101000a900473ffffffffffffffffffffffffffffffffffffffff1673ffffffffffffffffffffffffffffffffffffffff1673ffffffffffffffffffffffffffffffffffffffff1681526020019081526020016000205403600260008360020160009054906101000a900473ffffffffffffffffffffffffffffffffffffffff1673ffffffffffffffffffffffffffffffffffffffff1673ffffffffffffffffffffffffffffffffffffffff1681526020019081526020016000208190555060008160060154420190506126fd81610ca6565b8260050160006101000a81548160ff021916908360ff16021790555061272281611dcf565b8260050160016101000a81548160ff021916908360ff16021790555061274781611596565b8260050160026101000a81548161ffff021916908361ffff1602179055503373ffffffffffffffffffffffffffffffffffffffff167fa448afda7ea1e3a7a10fcab0c29fe9a9dd85791503bf0171f281521551c7ec05600260003373ffffffffffffffffffffffffffffffffffffffff1673ffffffffffffffffffffffffffffffffffffffff168152602001908152602001600020546040516127ea91906133a1565b60405180910390a25050565b604051806101800160405280600c90602082028038833980820191505090505090565b6040518061014001604052806000815260200160608152602001600073ffffffffffffffffffffffffffffffffffffffff168152602001600073ffffffffffffffffffffffffffffffffffffffff16815260200160008152602001600060ff168152602001600060ff168152602001600061ffff168152602001600081526020016000151581525090565b6040518061014001604052806000815260200160608152602001600073ffffffffffffffffffffffffffffffffffffffff168152602001600073ffffffffffffffffffffffffffffffffffffffff16815260200160008152602001600060ff168152602001600060ff168152602001600061ffff168152602001600081526020016000151581525090565b828054600181600116156101000203166002900490600052602060002090601f016020900481019282601f1061297057805160ff191683800117855561299e565b8280016001018555821561299e579182015b8281111561299d578251825591602001919060010190612982565b5b5090506129ab9190612a02565b5090565b6040518060e00160405280600061ffff168152602001600060ff168152602001600060ff168152602001600060ff168152602001600060ff168152602001600060ff168152602001600060ff1681525090565b612a2491905b80821115612a20576000816000905550600101612a08565b5090565b90565b600081359050612a3681613617565b92915050565b600081359050612a4b8161362e565b92915050565b60008083601f840112612a6357600080fd5b8235905067ffffffffffffffff811115612a7c57600080fd5b602083019150836001820283011115612a9457600080fd5b9250929050565b600082601f830112612aac57600080fd5b8135612abf612aba826134a7565b61347a565b91508082526020830160208301858383011115612adb57600080fd5b612ae68382846135c4565b50505092915050565b600081359050612afe81613645565b92915050565b600081359050612b138161365c565b92915050565b600081359050612b2881613673565b92915050565b600060208284031215612b4057600080fd5b6000612b4e84828501612a27565b91505092915050565b600080600080600080600080600060e08a8c031215612b7557600080fd5b60008a013567ffffffffffffffff811115612b8f57600080fd5b612b9b8c828d01612a51565b99509950506020612bae8c828d01612a3c565b9750506040612bbf8c828d01612b04565b9650506060612bd08c828d01612b19565b9550506080612be18c828d01612b19565b94505060a0612bf28c828d01612aef565b93505060c08a013567ffffffffffffffff811115612c0f57600080fd5b612c1b8c828d01612a51565b92509250509295985092959850929598565b600060208284031215612c3f57600080fd5b600082013567ffffffffffffffff811115612c5957600080fd5b612c6584828501612a9b565b91505092915050565b600060208284031215612c8057600080fd5b6000612c8e84828501612aef565b91505092915050565b600080600060608486031215612cac57600080fd5b6000612cba86828701612aef565b9350506020612ccb86828701612b19565b9250506040612cdc86828701612b19565b9150509250925092565b60008060008060808587031215612cfc57600080fd5b6000612d0a87828801612aef565b9450506020612d1b87828801612b19565b9350506040612d2c87828801612b19565b9250506060612d3d87828801612b19565b91505092959194509250565b600080600080600060a08688031215612d6157600080fd5b6000612d6f88828901612aef565b9550506020612d8088828901612b19565b9450506040612d9188828901612b19565b9350506060612da288828901612b19565b9250506080612db388828901612b19565b9150509295509295909350565b60008060008060008060c08789031215612dd957600080fd5b6000612de789828a01612aef565b9650506020612df889828a01612b19565b9550506040612e0989828a01612b19565b9450506060612e1a89828a01612b19565b9350506080612e2b89828a01612b19565b92505060a0612e3c89828a01612b19565b9150509295509295509295565b600060208284031215612e5b57600080fd5b6000612e6984828501612b04565b91505092915050565b60008060408385031215612e8557600080fd5b6000612e9385828601612b19565b9250506020612ea485828601612aef565b9150509250929050565b6000612eba838361316d565b905092915050565b612ecb81613561565b82525050565b612eda81613561565b82525050565b612ee98161354f565b82525050565b612ef88161354f565b82525050565b6000612f09826134e3565b612f138185613511565b935083602082028501612f25856134d3565b8060005b85811015612f615784840389528151612f428582612eae565b9450612f4d83613504565b925060208a01995050600181019050612f29565b50829750879550505050505092915050565b612f7c81613573565b82525050565b612f8b81613573565b82525050565b6000612f9c826134f9565b612fa68185613533565b9350612fb68185602086016135d3565b612fbf81613606565b840191505092915050565b6000612fd5826134f9565b612fdf8185613544565b9350612fef8185602086016135d3565b80840191505092915050565b6000613006826134ee565b6130108185613522565b93506130208185602086016135d3565b61302981613606565b840191505092915050565b600061303f826134ee565b6130498185613533565b93506130598185602086016135d3565b61306281613606565b840191505092915050565b600061307a600783613544565b91507f6d6f6e74686c79000000000000000000000000000000000000000000000000006000830152600782019050919050565b60006130ba600683613544565b91507f796561726c7900000000000000000000000000000000000000000000000000006000830152600682019050919050565b60006130fa600683613544565b91507f7765656b6c7900000000000000000000000000000000000000000000000000006000830152600682019050919050565b600061313a600583613544565b91507f6461696c790000000000000000000000000000000000000000000000000000006000830152600582019050919050565b6000610140830160008301516131866000860182613265565b506020830151848203602086015261319e8282612ffb565b91505060408301516131b36040860182612ee0565b5060608301516131c66060860182612ec2565b5060808301516131d96080860182613265565b5060a08301516131ec60a0860182613283565b5060c08301516131ff60c0860182613283565b5060e083015161321260e0860182613247565b50610100830151613227610100860182613265565b5061012083015161323c610120860182612f73565b508091505092915050565b6132508161357f565b82525050565b61325f8161357f565b82525050565b61326e816135ad565b82525050565b61327d816135ad565b82525050565b61328c816135b7565b82525050565b61329b816135b7565b82525050565b60006132ad8284612fca565b915081905092915050565b60006132c38261306d565b9150819050919050565b60006132d8826130ad565b9150819050919050565b60006132ed826130ed565b9150819050919050565b60006133028261312d565b9150819050919050565b60006020820190506133216000830184612eef565b92915050565b600060208201905081810360008301526133418184612efe565b905092915050565b600060208201905061335e6000830184612f82565b92915050565b6000602082019050818103600083015261337e8184612f91565b905092915050565b600060208201905061339b6000830184613256565b92915050565b60006020820190506133b66000830184613274565b92915050565b6000610140820190506133d2600083018d613274565b81810360208301526133e4818c613034565b90506133f3604083018b612eef565b613400606083018a612ed1565b61340d6080830189613274565b61341a60a0830188613292565b61342760c0830187613292565b61343460e0830186613256565b613442610100830185613274565b613450610120830184612f82565b9b9a5050505050505050505050565b60006020820190506134746000830184613292565b92915050565b6000604051905081810181811067ffffffffffffffff8211171561349d57600080fd5b8060405250919050565b600067ffffffffffffffff8211156134be57600080fd5b601f19601f8301169050602081019050919050565b6000819050602082019050919050565b600081519050919050565b600081519050919050565b600081519050919050565b6000602082019050919050565b600082825260208201905092915050565b600082825260208201905092915050565b600082825260208201905092915050565b600081905092915050565b600061355a8261358d565b9050919050565b600061356c8261358d565b9050919050565b60008115159050919050565b600061ffff82169050919050565b600073ffffffffffffffffffffffffffffffffffffffff82169050919050565b6000819050919050565b600060ff82169050919050565b82818337600083830152505050565b60005b838110156135f15780820151818401526020810190506135d6565b83811115613600576000848401525b50505050565b6000601f19601f8301169050919050565b6136208161354f565b811461362b57600080fd5b50565b61363781613561565b811461364257600080fd5b50565b61364e8161357f565b811461365957600080fd5b50565b613665816135ad565b811461367057600080fd5b50565b61367c816135b7565b811461368757600080fd5b5056fea365627a7a7231582006ce6810cd2d43de2cecbc845d650ab8a2f0380180e8e43db566a171d60d23346c6578706572696d656e74616cf564736f6c63430005100040",
  "source": "pragma solidity ^0.5.0;\n\nimport \"./ownable.sol\";\nimport \"./datetime.sol\";\npragma experimental ABIEncoderV2;\n\ncontract OnePay is Ownable, DateTime {\n\n    event BalanceChanged(address indexed _owner, uint256 _newBalance);\n    event BeneficionariesChanged(address indexed _owner);\n\n    struct Payment {\n        uint id;\n        string name;\n        address from;\n        address payable to;\n        uint amount;\n        uint8 nextDay;\n        uint8 nextMonth;\n        uint16 nextYear;\n        uint interval;\n        bool active;\n    }\n\n    Payment[] public payments;\n\n    mapping (address => uint256) ownerToBalance; \n    mapping (address =>mapping(address=> Payment)) ownerToPayment;\n    mapping (address => uint) ownerPaymentCount;\n    mapping (uint => address) paymentIdToOwner;\n    mapping (uint => Payment) paymentIdToPayment;\n\n    constructor() public {\n        ownerToBalance[msg.sender] = 0;\n    }\n\n    function getSmartContractBalance() external view returns(uint256){\n        return address(this).balance;\n    }\n\n    function getUserBalance() external view returns(uint256){\n        return ownerToBalance[msg.sender];\n    }\n\n    function getAddress() external view returns(address){\n        return address(this);\n    }\n\n    function fundAccount() external payable {\n        require(msg.value>0);\n        ownerToBalance[msg.sender] = ownerToBalance[msg.sender]+msg.value;\n        emit BalanceChanged(msg.sender, ownerToBalance[msg.sender]);\n    }\n\n    function withdrawFromAccount(uint256 _amount) external returns (bool){\n        require(_amount<=ownerToBalance[msg.sender]);\n        msg.sender.transfer(_amount);\n        ownerToBalance[msg.sender] = ownerToBalance[msg.sender] - _amount;\n        emit BalanceChanged(msg.sender, ownerToBalance[msg.sender]);\n        return true;\n    }\n\n    function getInterval(string memory _interval) public pure returns (uint){\n        if(keccak256(abi.encodePacked(_interval)) ==keccak256(abi.encodePacked(\"daily\"))){\n            return 1 days;\n        }\n        if(keccak256(abi.encodePacked(_interval)) ==keccak256(abi.encodePacked(\"weekly\"))){\n            return 7 days;\n        }\n        if(keccak256(abi.encodePacked(_interval)) ==keccak256(abi.encodePacked(\"monthly\"))){\n            return 30 days;\n        }\n        if(keccak256(abi.encodePacked(_interval)) ==keccak256(abi.encodePacked(\"yearly\"))){\n            return 365 days;\n        }\n    }\n\n    function addNewBeneficiary(string calldata _name, address payable _to, uint _amount, uint8 _day, uint8 _month, uint16 _year, string calldata _interval) external {\n        uint id = payments.length;\n        Payment memory newPayment = Payment(\n            id,\n            _name,\n            msg.sender,\n            _to,\n            _amount,\n            _day,\n            _month,\n            _year, \n            getInterval(_interval),\n            true\n        );\n        payments.push(newPayment);\n        ownerToPayment[msg.sender][_to] =  newPayment;\n        ownerPaymentCount[msg.sender] = ownerPaymentCount[msg.sender]+1;\n        paymentIdToOwner[id]=msg.sender;\n        paymentIdToPayment[id]= newPayment;\n        emit BeneficionariesChanged(msg.sender);\n        emit BalanceChanged(msg.sender, ownerToBalance[msg.sender]);\n    }\n\n    function getCurrentDay() public view returns(uint8){\n        return getDay(now);\n    }\n    function getCurrentMonth() public view returns(uint8){\n        return getMonth(now);\n\n    }\n        function getCurrentYear() public view returns(uint16){\n        return getYear(now);\n\n    }\n\n    function paymentToday(Payment storage _payment) internal view returns(bool){\n        if( _payment.nextYear == getYear(now) && _payment.nextMonth == getMonth(now) && _payment.nextDay == getDay(now)){\n            return true;\n        }\n    }\n\n    function sendPayment(Payment storage _payment)internal{\n        require(ownerToBalance[_payment.from] >= _payment.amount);\n        _payment.to.transfer(_payment.amount);\n        ownerToBalance[_payment.from] = ownerToBalance[_payment.from]-_payment.amount;\n        uint nextTimeStamp = now + _payment.interval;\n        _payment.nextDay = getDay(nextTimeStamp);\n        _payment.nextMonth = getMonth(nextTimeStamp);\n        _payment.nextYear = getYear(nextTimeStamp);\n            emit BalanceChanged(msg.sender, ownerToBalance[msg.sender]);\n\n    }\n\n    function dispersePayments() public returns (string memory){\n        for(uint i = 0; i < payments.length; i++){\n            Payment storage currentPayment = payments[i];\n            if(paymentToday(currentPayment) && currentPayment.active==true){\n                sendPayment(currentPayment);\n                return \"abc\";\n            }\n        }\n\n                        return \"def\";\n\n    }\n\n    function getBeneficiaries() public view returns (Payment[] memory){\n        Payment[] memory result = new Payment[](ownerPaymentCount[msg.sender]);\n        uint counter = 0;\n        for(uint i = 0; i < payments.length; i++){\n            if(payments[i].from == msg.sender){\n                result[counter] = payments[i];\n                counter++;\n            }\n        }\n        return result;\n    }\n\n    function toggleBeneficiary(uint _id) public {\n        Payment storage currentPayment = payments[_id];\n        currentPayment.active = !currentPayment.active;\n        emit BeneficionariesChanged(msg.sender);\n    }\n  \n\n\n}",
  "sourcePath": "/Users/eddyreynoso/Desktop/defi/src/contracts/OnePay.sol",
  "compiler": {
    "name": "solc",
    "version": "0.5.16+commit.9c3226ce.Emscripten.clang"
  },
  "schemaVersion": "3.2.3",
  "updatedAt": "2021-05-12T23:11:25.873Z",
  "networkType": "ethereum",
  "devdoc": {
    "methods": {
      "isOwner()": {
        "return": "true if `msg.sender` is the owner of the contract."
      },
      "owner()": {
        "return": "the address of the owner."
      },
      "renounceOwnership()": {
        "details": "Allows the current owner to relinquish control of the contract."
      },
      "transferOwnership(address)": {
        "details": "Allows the current owner to transfer control of the contract to a newOwner.",
        "params": {
          "newOwner": "The address to transfer ownership to."
        }
      }
    }
  },
  "userdoc": {
    "methods": {
      "renounceOwnership()": {
        "notice": "Renouncing to ownership will leave the contract without an owner. It will not be possible to call the functions with the `onlyOwner` modifier anymore."
      }
    }
  }
}